{
  "contractName": "LevelThree",
  "abi": [
    {
      "constant": true,
      "inputs": [
        {
          "name": "level",
          "type": "uint256"
        }
      ],
      "name": "numberOfUsersPerLevel",
      "outputs": [
        {
          "name": "",
          "type": "uint256"
        }
      ],
      "payable": false,
      "stateMutability": "view",
      "type": "function"
    },
    {
      "constant": true,
      "inputs": [
        {
          "name": "",
          "type": "uint256"
        }
      ],
      "name": "userToOwner",
      "outputs": [
        {
          "name": "",
          "type": "address"
        }
      ],
      "payable": false,
      "stateMutability": "view",
      "type": "function"
    },
    {
      "constant": false,
      "inputs": [
        {
          "name": "answer",
          "type": "uint256"
        }
      ],
      "name": "levelOne",
      "outputs": [
        {
          "name": "",
          "type": "bool"
        }
      ],
      "payable": true,
      "stateMutability": "payable",
      "type": "function"
    },
    {
      "constant": false,
      "inputs": [
        {
          "name": "name",
          "type": "string"
        }
      ],
      "name": "createUser",
      "outputs": [],
      "payable": false,
      "stateMutability": "nonpayable",
      "type": "function"
    },
    {
      "constant": true,
      "inputs": [
        {
          "name": "userAddress",
          "type": "address"
        }
      ],
      "name": "currentLevel",
      "outputs": [
        {
          "name": "",
          "type": "uint256"
        }
      ],
      "payable": false,
      "stateMutability": "view",
      "type": "function"
    },
    {
      "constant": true,
      "inputs": [
        {
          "name": "_level",
          "type": "uint256"
        }
      ],
      "name": "usersInLevel",
      "outputs": [
        {
          "name": "",
          "type": "address[]"
        }
      ],
      "payable": false,
      "stateMutability": "view",
      "type": "function"
    },
    {
      "constant": true,
      "inputs": [],
      "name": "numberOfUsers",
      "outputs": [
        {
          "name": "",
          "type": "uint256"
        }
      ],
      "payable": false,
      "stateMutability": "view",
      "type": "function"
    },
    {
      "constant": true,
      "inputs": [],
      "name": "owner",
      "outputs": [
        {
          "name": "",
          "type": "address"
        }
      ],
      "payable": false,
      "stateMutability": "view",
      "type": "function"
    },
    {
      "constant": false,
      "inputs": [
        {
          "name": "answer",
          "type": "uint256"
        }
      ],
      "name": "levelTwo",
      "outputs": [
        {
          "name": "",
          "type": "bool"
        }
      ],
      "payable": true,
      "stateMutability": "payable",
      "type": "function"
    },
    {
      "constant": true,
      "inputs": [
        {
          "name": "index",
          "type": "uint256"
        }
      ],
      "name": "getAddressByIndex",
      "outputs": [
        {
          "name": "",
          "type": "address"
        }
      ],
      "payable": false,
      "stateMutability": "view",
      "type": "function"
    },
    {
      "constant": true,
      "inputs": [],
      "name": "users",
      "outputs": [
        {
          "name": "name",
          "type": "string"
        },
        {
          "name": "level",
          "type": "uint256"
        }
      ],
      "payable": false,
      "stateMutability": "view",
      "type": "function"
    },
    {
      "constant": false,
      "inputs": [
        {
          "name": "newOwner",
          "type": "address"
        }
      ],
      "name": "transferOwnership",
      "outputs": [],
      "payable": false,
      "stateMutability": "nonpayable",
      "type": "function"
    },
    {
      "constant": false,
      "inputs": [
        {
          "name": "answer",
          "type": "uint256"
        }
      ],
      "name": "levelThree",
      "outputs": [
        {
          "name": "",
          "type": "bool"
        }
      ],
      "payable": true,
      "stateMutability": "payable",
      "type": "function"
    }
  ],
  "bytecode": "0x6060604052662386f26fc10000600755662386f26fc10000600855662386f26fc10000600955336000806101000a81548173ffffffffffffffffffffffffffffffffffffffff021916908373ffffffffffffffffffffffffffffffffffffffff160217905550610c6b806100746000396000f3006060604052600436106100c5576000357c0100000000000000000000000000000000000000000000000000000000900463ffffffff1680630c024234146100ca5780630d7b081c14610101578063146cb2591461016457806337c40f4e14610194578063507ffba5146101c4578063691a037a14610221578063727ff93b1461026e57806375ce46a7146102e65780638da5cb5b1461030f578063928074fd14610364578063ce10cf8814610394578063f2020275146103f7578063f2fde38b146104a9575b600080fd5b34156100d557600080fd5b6100eb60048080359060200190919050506104e2565b6040518082815260200191505060405180910390f35b341561010c57600080fd5b61012260048080359060200190919050506104ff565b604051808273ffffffffffffffffffffffffffffffffffffffff1673ffffffffffffffffffffffffffffffffffffffff16815260200191505060405180910390f35b61017a6004808035906020019091905050610532565b604051808215151515815260200191505060405180910390f35b6101aa6004808035906020019091905050610589565b604051808215151515815260200191505060405180910390f35b34156101cf57600080fd5b61021f600480803590602001908201803590602001908080601f016020809104026020016040519081016040528093929190818152602001838380828437820191505050505050919050506105e0565b005b341561022c57600080fd5b610258600480803573ffffffffffffffffffffffffffffffffffffffff16906020019091905050610716565b6040518082815260200191505060405180910390f35b341561027957600080fd5b61028f6004808035906020019091905050610762565b6040518080602001828103825283818151815260200191508051906020019060200280838360005b838110156102d25780820151818401526020810190506102b7565b505050509050019250505060405180910390f35b34156102f157600080fd5b6102f96108e9565b6040518082815260200191505060405180910390f35b341561031a57600080fd5b6103226108f6565b604051808273ffffffffffffffffffffffffffffffffffffffff1673ffffffffffffffffffffffffffffffffffffffff16815260200191505060405180910390f35b61037a600480803590602001909190505061091b565b604051808215151515815260200191505060405180910390f35b341561039f57600080fd5b6103b56004808035906020019091905050610972565b604051808273ffffffffffffffffffffffffffffffffffffffff1673ffffffffffffffffffffffffffffffffffffffff16815260200191505060405180910390f35b341561040257600080fd5b61040a6109b6565b60405180806020018381526020018281038252848181546001816001161561010002031660029004815260200191508054600181600116156101000203166002900480156104995780601f1061046e57610100808354040283529160200191610499565b820191906000526020600020905b81548152906001019060200180831161047c57829003601f168201915b5050935050505060405180910390f35b34156104b457600080fd5b6104e0600480803573ffffffffffffffffffffffffffffffffffffffff169060200190919050506109c7565b005b600060066000838152602001908152602001600020549050919050565b60046020528060005260406000206000915054906101000a900473ffffffffffffffffffffffffffffffffffffffff1681565b60008061053e33610716565b90506009543414151561055057600080fd5b6003811480156105605750600383145b1561057e5761056d610aa1565b610575610ad5565b60019150610583565b600091505b50919050565b60008061059533610716565b9050600754341415156105a757600080fd5b6001811480156105b75750600183145b156105d5576105c4610aa1565b6105cc610ad5565b600191506105da565b600091505b50919050565b6000600580548060010182816105f69190610b5a565b9160005260206000209001600033909190916101000a81548173ffffffffffffffffffffffffffffffffffffffff021916908373ffffffffffffffffffffffffffffffffffffffff1602179055505081600360003373ffffffffffffffffffffffffffffffffffffffff1673ffffffffffffffffffffffffffffffffffffffff168152602001908152602001600020600001908051906020019061069b929190610b86565b506001600360003373ffffffffffffffffffffffffffffffffffffffff1673ffffffffffffffffffffffffffffffffffffffff168152602001908152602001600020600101819055506106ed33610716565b905060066000828152602001908152602001600020600081548092919060010191905055505050565b6000600360008373ffffffffffffffffffffffffffffffffffffffff1673ffffffffffffffffffffffffffffffffffffffff168152602001908152602001600020600101549050919050565b61076a610c06565b610772610c06565b60008060066000868152602001908152602001600020546040518059106107965750595b9080825280602002602001820160405250925060009150600090505b6005805490508110156108de5784600360006005848154811015156107d357fe5b906000526020600020900160009054906101000a900473ffffffffffffffffffffffffffffffffffffffff1673ffffffffffffffffffffffffffffffffffffffff1673ffffffffffffffffffffffffffffffffffffffff1681526020019081526020016000206001015414156108d15760058181548110151561085257fe5b906000526020600020900160009054906101000a900473ffffffffffffffffffffffffffffffffffffffff16838381518110151561088c57fe5b9060200190602002019073ffffffffffffffffffffffffffffffffffffffff16908173ffffffffffffffffffffffffffffffffffffffff168152505081806001019250505b80806001019150506107b2565b829350505050919050565b6000600580549050905090565b6000809054906101000a900473ffffffffffffffffffffffffffffffffffffffff1681565b60008061092733610716565b90506008543414151561093957600080fd5b6002811480156109495750600283145b1561096757610956610aa1565b61095e610ad5565b6001915061096c565b600091505b50919050565b600060058281548110151561098357fe5b906000526020600020900160009054906101000a900473ffffffffffffffffffffffffffffffffffffffff169050919050565b600180600001908060010154905082565b6000809054906101000a900473ffffffffffffffffffffffffffffffffffffffff1673ffffffffffffffffffffffffffffffffffffffff163373ffffffffffffffffffffffffffffffffffffffff16141515610a2257600080fd5b600073ffffffffffffffffffffffffffffffffffffffff168173ffffffffffffffffffffffffffffffffffffffff1614151515610a5e57600080fd5b806000806101000a81548173ffffffffffffffffffffffffffffffffffffffff021916908373ffffffffffffffffffffffffffffffffffffffff16021790555050565b6000610aac33610716565b905060066000828152602001908152602001600020600081548092919060019003919050555050565b6000600360003373ffffffffffffffffffffffffffffffffffffffff1673ffffffffffffffffffffffffffffffffffffffff16815260200190815260200160002060010160008154809291906001019190505550610b3233610716565b9050600660008281526020019081526020016000206000815480929190600101919050555050565b815481835581811511610b8157818360005260206000209182019101610b809190610c1a565b5b505050565b828054600181600116156101000203166002900490600052602060002090601f016020900481019282601f10610bc757805160ff1916838001178555610bf5565b82800160010185558215610bf5579182015b82811115610bf4578251825591602001919060010190610bd9565b5b509050610c029190610c1a565b5090565b602060405190810160405280600081525090565b610c3c91905b80821115610c38576000816000905550600101610c20565b5090565b905600a165627a7a7230582035d1eefd9540fe2f3ee7b4db9dffbd321e53c1e4a3ebbc673e9abd21f6d22c250029",
  "source": "pragma solidity ^0.4.17;\n\nimport \"./LevelTwo.sol\";\n\ncontract LevelThree is LevelTwo { \n\n\t// @dev This is the amount of ETH a user has to spend to make a guess\n    uint payToPlayFee = .01 ether;\n\n    // @dev If a user guesses correctly, the incrementLevel() is called and they advance to the next level \n\tfunction levelThree(uint answer) public payable returns (bool) {\n\t\t\t\n\t\t\tuint level = currentLevel(msg.sender);\t\t\n\n\t\t\trequire(msg.value == payToPlayFee);\n\n\t\t\tif (level == 3 && answer == 3) {\n\t\t\t\tremoveFromPriorLevel();\n\n\t\t\t\tincrementLevel();\n\n\t\t\t\treturn true;\n\t\t\t}\n\t\t\telse {\n\n            \treturn false;\n        \t}\n\t\t}\n\n}\n",
  "sourcePath": "/Users/kseniya/Documents/coding/blockchainCoding/blockchain-tutorial/contracts/LevelThree.sol",
  "compiler": {
    "name": "solc",
    "version": "0.4.19+commit.c4cbbb05.Emscripten.clang"
  },
  "schemaVersion": "2.0.0",
  "updatedAt": "2018-04-06T23:44:46.070Z"
}