{
  "contractName": "LevelOne",
  "abi": [
    {
      "constant": true,
      "inputs": [
        {
          "name": "level",
          "type": "uint256"
        }
      ],
      "name": "numberOfUsersPerLevel",
      "outputs": [
        {
          "name": "",
          "type": "uint256"
        }
      ],
      "payable": false,
      "stateMutability": "view",
      "type": "function"
    },
    {
      "constant": true,
      "inputs": [
        {
          "name": "",
          "type": "uint256"
        }
      ],
      "name": "userToOwner",
      "outputs": [
        {
          "name": "",
          "type": "address"
        }
      ],
      "payable": false,
      "stateMutability": "view",
      "type": "function"
    },
    {
      "constant": false,
      "inputs": [
        {
          "name": "name",
          "type": "string"
        }
      ],
      "name": "createUser",
      "outputs": [],
      "payable": false,
      "stateMutability": "nonpayable",
      "type": "function"
    },
    {
      "constant": true,
      "inputs": [
        {
          "name": "userAddress",
          "type": "address"
        }
      ],
      "name": "currentLevel",
      "outputs": [
        {
          "name": "",
          "type": "uint256"
        }
      ],
      "payable": false,
      "stateMutability": "view",
      "type": "function"
    },
    {
      "constant": true,
      "inputs": [
        {
          "name": "_level",
          "type": "uint256"
        }
      ],
      "name": "usersInLevel",
      "outputs": [
        {
          "name": "",
          "type": "address[]"
        }
      ],
      "payable": false,
      "stateMutability": "view",
      "type": "function"
    },
    {
      "constant": true,
      "inputs": [],
      "name": "numberOfUsers",
      "outputs": [
        {
          "name": "",
          "type": "uint256"
        }
      ],
      "payable": false,
      "stateMutability": "view",
      "type": "function"
    },
    {
      "constant": true,
      "inputs": [],
      "name": "owner",
      "outputs": [
        {
          "name": "",
          "type": "address"
        }
      ],
      "payable": false,
      "stateMutability": "view",
      "type": "function"
    },
    {
      "constant": true,
      "inputs": [
        {
          "name": "index",
          "type": "uint256"
        }
      ],
      "name": "getAddressByIndex",
      "outputs": [
        {
          "name": "",
          "type": "address"
        }
      ],
      "payable": false,
      "stateMutability": "view",
      "type": "function"
    },
    {
      "constant": true,
      "inputs": [],
      "name": "users",
      "outputs": [
        {
          "name": "name",
          "type": "string"
        },
        {
          "name": "level",
          "type": "uint256"
        }
      ],
      "payable": false,
      "stateMutability": "view",
      "type": "function"
    },
    {
      "constant": false,
      "inputs": [
        {
          "name": "newOwner",
          "type": "address"
        }
      ],
      "name": "transferOwnership",
      "outputs": [],
      "payable": false,
      "stateMutability": "nonpayable",
      "type": "function"
    },
    {
      "constant": false,
      "inputs": [
        {
          "name": "answer",
          "type": "uint256"
        }
      ],
      "name": "levelOne",
      "outputs": [
        {
          "name": "",
          "type": "bool"
        }
      ],
      "payable": true,
      "stateMutability": "payable",
      "type": "function"
    }
  ],
  "bytecode": "0x6060604052662386f26fc10000600755336000806101000a81548173ffffffffffffffffffffffffffffffffffffffff021916908373ffffffffffffffffffffffffffffffffffffffff160217905550610b478061005e6000396000f3006060604052600436106100af576000357c0100000000000000000000000000000000000000000000000000000000900463ffffffff1680630c024234146100b45780630d7b081c146100eb57806337c40f4e1461014e578063507ffba51461017e578063691a037a146101db578063727ff93b1461022857806375ce46a7146102a05780638da5cb5b146102c9578063ce10cf881461031e578063f202027514610381578063f2fde38b14610433575b600080fd5b34156100bf57600080fd5b6100d5600480803590602001909190505061046c565b6040518082815260200191505060405180910390f35b34156100f657600080fd5b61010c6004808035906020019091905050610489565b604051808273ffffffffffffffffffffffffffffffffffffffff1673ffffffffffffffffffffffffffffffffffffffff16815260200191505060405180910390f35b61016460048080359060200190919050506104bc565b604051808215151515815260200191505060405180910390f35b341561018957600080fd5b6101d9600480803590602001908201803590602001908080601f01602080910402602001604051908101604052809392919081815260200183838082843782019150505050505091905050610513565b005b34156101e657600080fd5b610212600480803573ffffffffffffffffffffffffffffffffffffffff16906020019091905050610649565b6040518082815260200191505060405180910390f35b341561023357600080fd5b6102496004808035906020019091905050610695565b6040518080602001828103825283818151815260200191508051906020019060200280838360005b8381101561028c578082015181840152602081019050610271565b505050509050019250505060405180910390f35b34156102ab57600080fd5b6102b361081c565b6040518082815260200191505060405180910390f35b34156102d457600080fd5b6102dc610829565b604051808273ffffffffffffffffffffffffffffffffffffffff1673ffffffffffffffffffffffffffffffffffffffff16815260200191505060405180910390f35b341561032957600080fd5b61033f600480803590602001909190505061084e565b604051808273ffffffffffffffffffffffffffffffffffffffff1673ffffffffffffffffffffffffffffffffffffffff16815260200191505060405180910390f35b341561038c57600080fd5b610394610892565b60405180806020018381526020018281038252848181546001816001161561010002031660029004815260200191508054600181600116156101000203166002900480156104235780601f106103f857610100808354040283529160200191610423565b820191906000526020600020905b81548152906001019060200180831161040657829003601f168201915b5050935050505060405180910390f35b341561043e57600080fd5b61046a600480803573ffffffffffffffffffffffffffffffffffffffff169060200190919050506108a3565b005b600060066000838152602001908152602001600020549050919050565b60046020528060005260406000206000915054906101000a900473ffffffffffffffffffffffffffffffffffffffff1681565b6000806104c833610649565b9050600754341415156104da57600080fd5b6001811480156104ea5750600183145b15610508576104f761097d565b6104ff6109b1565b6001915061050d565b600091505b50919050565b6000600580548060010182816105299190610a36565b9160005260206000209001600033909190916101000a81548173ffffffffffffffffffffffffffffffffffffffff021916908373ffffffffffffffffffffffffffffffffffffffff1602179055505081600360003373ffffffffffffffffffffffffffffffffffffffff1673ffffffffffffffffffffffffffffffffffffffff16815260200190815260200160002060000190805190602001906105ce929190610a62565b506001600360003373ffffffffffffffffffffffffffffffffffffffff1673ffffffffffffffffffffffffffffffffffffffff1681526020019081526020016000206001018190555061062033610649565b905060066000828152602001908152602001600020600081548092919060010191905055505050565b6000600360008373ffffffffffffffffffffffffffffffffffffffff1673ffffffffffffffffffffffffffffffffffffffff168152602001908152602001600020600101549050919050565b61069d610ae2565b6106a5610ae2565b60008060066000868152602001908152602001600020546040518059106106c95750595b9080825280602002602001820160405250925060009150600090505b60058054905081101561081157846003600060058481548110151561070657fe5b906000526020600020900160009054906101000a900473ffffffffffffffffffffffffffffffffffffffff1673ffffffffffffffffffffffffffffffffffffffff1673ffffffffffffffffffffffffffffffffffffffff1681526020019081526020016000206001015414156108045760058181548110151561078557fe5b906000526020600020900160009054906101000a900473ffffffffffffffffffffffffffffffffffffffff1683838151811015156107bf57fe5b9060200190602002019073ffffffffffffffffffffffffffffffffffffffff16908173ffffffffffffffffffffffffffffffffffffffff168152505081806001019250505b80806001019150506106e5565b829350505050919050565b6000600580549050905090565b6000809054906101000a900473ffffffffffffffffffffffffffffffffffffffff1681565b600060058281548110151561085f57fe5b906000526020600020900160009054906101000a900473ffffffffffffffffffffffffffffffffffffffff169050919050565b600180600001908060010154905082565b6000809054906101000a900473ffffffffffffffffffffffffffffffffffffffff1673ffffffffffffffffffffffffffffffffffffffff163373ffffffffffffffffffffffffffffffffffffffff161415156108fe57600080fd5b600073ffffffffffffffffffffffffffffffffffffffff168173ffffffffffffffffffffffffffffffffffffffff161415151561093a57600080fd5b806000806101000a81548173ffffffffffffffffffffffffffffffffffffffff021916908373ffffffffffffffffffffffffffffffffffffffff16021790555050565b600061098833610649565b905060066000828152602001908152602001600020600081548092919060019003919050555050565b6000600360003373ffffffffffffffffffffffffffffffffffffffff1673ffffffffffffffffffffffffffffffffffffffff16815260200190815260200160002060010160008154809291906001019190505550610a0e33610649565b9050600660008281526020019081526020016000206000815480929190600101919050555050565b815481835581811511610a5d57818360005260206000209182019101610a5c9190610af6565b5b505050565b828054600181600116156101000203166002900490600052602060002090601f016020900481019282601f10610aa357805160ff1916838001178555610ad1565b82800160010185558215610ad1579182015b82811115610ad0578251825591602001919060010190610ab5565b5b509050610ade9190610af6565b5090565b602060405190810160405280600081525090565b610b1891905b80821115610b14576000816000905550600101610afc565b5090565b905600a165627a7a7230582071415440129ec7aa12a07bf7bd6db4d4ea7999beeb8eb5850d3801bed17416400029",
  "source": "pragma solidity ^0.4.17;\n\nimport \"./UserFactory.sol\";\n\ncontract LevelOne is UserFactory { \n\n\t// @dev This is the amount of ETH a user has to spend to make a guess\n    uint payToPlayFee = .01 ether;\n\n    // @dev If a user guesses correctly, the incrementLevel() is called and they advance to the next level \n    function levelOne(uint answer) public payable returns (bool) {\n\n\t\t\tuint level = currentLevel(msg.sender); \n\n\t\t\trequire(msg.value == payToPlayFee);\n\n\t\t\tif (level == 1 && answer == 1) {\n\t\t\t\tremoveFromPriorLevel();\n\n\t\t\t\tincrementLevel();\n\n\t\t\t\treturn true;\n\t\t\t}\n\t\t\telse {\n\n            \treturn false;\n        \t}\n    }\n\n}\n",
  "sourcePath": "/Users/kseniya/Documents/coding/blockchainCoding/blockchain-tutorial/contracts/LevelOne.sol",
  "compiler": {
    "name": "solc",
    "version": "0.4.19+commit.c4cbbb05.Emscripten.clang"
  },
  "schemaVersion": "2.0.0",
  "updatedAt": "2018-04-06T23:44:45.802Z"
}