{
  "contractName": "LevelSix",
  "abi": [
    {
      "constant": true,
      "inputs": [
        {
          "name": "level",
          "type": "uint256"
        }
      ],
      "name": "numberOfUsersPerLevel",
      "outputs": [
        {
          "name": "",
          "type": "uint256"
        }
      ],
      "payable": false,
      "stateMutability": "view",
      "type": "function"
    },
    {
      "constant": false,
      "inputs": [
        {
          "name": "answer",
          "type": "uint256"
        }
      ],
      "name": "levelThree",
      "outputs": [
        {
          "name": "",
          "type": "bool"
        }
      ],
      "payable": true,
      "stateMutability": "payable",
      "type": "function"
    },
    {
      "constant": false,
      "inputs": [
        {
          "name": "answer",
          "type": "uint256"
        }
      ],
      "name": "levelOne",
      "outputs": [
        {
          "name": "",
          "type": "bool"
        }
      ],
      "payable": true,
      "stateMutability": "payable",
      "type": "function"
    },
    {
      "constant": true,
      "inputs": [
        {
          "name": "",
          "type": "uint256"
        }
      ],
      "name": "userAddresses",
      "outputs": [
        {
          "name": "",
          "type": "address"
        }
      ],
      "payable": false,
      "stateMutability": "view",
      "type": "function"
    },
    {
      "constant": false,
      "inputs": [
        {
          "name": "name",
          "type": "string"
        }
      ],
      "name": "createUser",
      "outputs": [],
      "payable": false,
      "stateMutability": "nonpayable",
      "type": "function"
    },
    {
      "constant": true,
      "inputs": [
        {
          "name": "userAddress",
          "type": "address"
        }
      ],
      "name": "currentLevel",
      "outputs": [
        {
          "name": "",
          "type": "uint256"
        }
      ],
      "payable": false,
      "stateMutability": "view",
      "type": "function"
    },
    {
      "constant": true,
      "inputs": [
        {
          "name": "_level",
          "type": "uint256"
        }
      ],
      "name": "usersInLevel",
      "outputs": [
        {
          "name": "",
          "type": "address[]"
        }
      ],
      "payable": false,
      "stateMutability": "view",
      "type": "function"
    },
    {
      "constant": true,
      "inputs": [],
      "name": "numberOfUsers",
      "outputs": [
        {
          "name": "",
          "type": "uint256"
        }
      ],
      "payable": false,
      "stateMutability": "view",
      "type": "function"
    },
    {
      "constant": true,
      "inputs": [],
      "name": "owner",
      "outputs": [
        {
          "name": "",
          "type": "address"
        }
      ],
      "payable": false,
      "stateMutability": "view",
      "type": "function"
    },
    {
      "constant": false,
      "inputs": [
        {
          "name": "answer",
          "type": "uint256"
        }
      ],
      "name": "levelTwo",
      "outputs": [
        {
          "name": "",
          "type": "bool"
        }
      ],
      "payable": true,
      "stateMutability": "payable",
      "type": "function"
    },
    {
      "constant": true,
      "inputs": [
        {
          "name": "index",
          "type": "uint256"
        }
      ],
      "name": "getAddressByIndex",
      "outputs": [
        {
          "name": "",
          "type": "address"
        }
      ],
      "payable": false,
      "stateMutability": "view",
      "type": "function"
    },
    {
      "constant": false,
      "inputs": [
        {
          "name": "answer",
          "type": "uint256"
        }
      ],
      "name": "levelFour",
      "outputs": [
        {
          "name": "",
          "type": "bool"
        }
      ],
      "payable": true,
      "stateMutability": "payable",
      "type": "function"
    },
    {
      "constant": false,
      "inputs": [
        {
          "name": "newOwner",
          "type": "address"
        }
      ],
      "name": "transferOwnership",
      "outputs": [],
      "payable": false,
      "stateMutability": "nonpayable",
      "type": "function"
    },
    {
      "constant": false,
      "inputs": [
        {
          "name": "answer",
          "type": "uint256"
        }
      ],
      "name": "levelFive",
      "outputs": [
        {
          "name": "",
          "type": "bool"
        }
      ],
      "payable": true,
      "stateMutability": "payable",
      "type": "function"
    },
    {
      "constant": false,
      "inputs": [
        {
          "name": "answer",
          "type": "uint256"
        }
      ],
      "name": "levelSix",
      "outputs": [
        {
          "name": "",
          "type": "bool"
        }
      ],
      "payable": true,
      "stateMutability": "payable",
      "type": "function"
    }
  ],
  "bytecode": "0x6080604052662386f26fc10000600455662386f26fc10000600555662386f26fc10000600655662386f26fc10000600755662386f26fc10000600855662386f26fc10000600955336000806101000a81548173ffffffffffffffffffffffffffffffffffffffff021916908373ffffffffffffffffffffffffffffffffffffffff160217905550610e92806100956000396000f3006080604052600436106100db576000357c0100000000000000000000000000000000000000000000000000000000900463ffffffff1680630c024234146100e0578063146cb2591461012157806337c40f4e14610159578063502c9bd514610191578063507ffba5146101fe578063691a037a14610267578063727ff93b146102be57806375ce46a71461034057806376cf16691461036b5780638da5cb5b146103a3578063928074fd146103fa578063ce10cf8814610432578063d94e2ad51461049f578063f2fde38b146104d7578063fd5da0011461051a575b600080fd5b3480156100ec57600080fd5b5061010b60048036038101908080359060200190929190505050610552565b6040518082815260200191505060405180910390f35b61013f6004803603810190808035906020019092919050505061056f565b604051808215151515815260200191505060405180910390f35b610177600480360381019080803590602001909291905050506105c6565b604051808215151515815260200191505060405180910390f35b34801561019d57600080fd5b506101bc6004803603810190808035906020019092919050505061061d565b604051808273ffffffffffffffffffffffffffffffffffffffff1673ffffffffffffffffffffffffffffffffffffffff16815260200191505060405180910390f35b34801561020a57600080fd5b50610265600480360381019080803590602001908201803590602001908080601f016020809104026020016040519081016040528093929190818152602001838380828437820191505050505050919291929050505061065b565b005b34801561027357600080fd5b506102a8600480360381019080803573ffffffffffffffffffffffffffffffffffffffff169060200190929190505050610793565b6040518082815260200191505060405180910390f35b3480156102ca57600080fd5b506102e9600480360381019080803590602001909291905050506107df565b6040518080602001828103825283818151815260200191508051906020019060200280838360005b8381101561032c578082015181840152602081019050610311565b505050509050019250505060405180910390f35b34801561034c57600080fd5b50610355610968565b6040518082815260200191505060405180910390f35b61038960048036038101908080359060200190929190505050610975565b604051808215151515815260200191505060405180910390f35b3480156103af57600080fd5b506103b86109c5565b604051808273ffffffffffffffffffffffffffffffffffffffff1673ffffffffffffffffffffffffffffffffffffffff16815260200191505060405180910390f35b610418600480360381019080803590602001909291905050506109ea565b604051808215151515815260200191505060405180910390f35b34801561043e57600080fd5b5061045d60048036038101908080359060200190929190505050610a41565b604051808273ffffffffffffffffffffffffffffffffffffffff1673ffffffffffffffffffffffffffffffffffffffff16815260200191505060405180910390f35b6104bd60048036038101908080359060200190929190505050610a84565b604051808215151515815260200191505060405180910390f35b3480156104e357600080fd5b50610518600480360381019080803573ffffffffffffffffffffffffffffffffffffffff169060200190929190505050610adb565b005b61053860048036038101908080359060200190929190505050610bb5565b604051808215151515815260200191505060405180910390f35b600060036000838152602001908152602001600020549050919050565b60008061057b33610793565b90506006543414151561058d57600080fd5b60038114801561059d5750600383145b156105bb576105aa610c0c565b6105b2610c40565b600191506105c0565b600091505b50919050565b6000806105d233610793565b9050600454341415156105e457600080fd5b6001811480156105f45750600183145b1561061257610601610c0c565b610609610c40565b60019150610617565b600091505b50919050565b60028181548110151561062c57fe5b906000526020600020016000915054906101000a900473ffffffffffffffffffffffffffffffffffffffff1681565b600060023390806001815401808255809150509060018203906000526020600020016000909192909190916101000a81548173ffffffffffffffffffffffffffffffffffffffff021916908373ffffffffffffffffffffffffffffffffffffffff1602179055505081600160003373ffffffffffffffffffffffffffffffffffffffff1673ffffffffffffffffffffffffffffffffffffffff1681526020019081526020016000206000019080519060200190610719929190610dc1565b5060018060003373ffffffffffffffffffffffffffffffffffffffff1673ffffffffffffffffffffffffffffffffffffffff1681526020019081526020016000206001018190555061076a33610793565b905060036000828152602001908152602001600020600081548092919060010191905055505050565b6000600160008373ffffffffffffffffffffffffffffffffffffffff1673ffffffffffffffffffffffffffffffffffffffff168152602001908152602001600020600101549050919050565b60608060008060036000868152602001908152602001600020546040519080825280602002602001820160405280156108275781602001602082028038833980820191505090505b50925060009150600090505b60028054905081101561095d57846001600060028481548110151561085457fe5b9060005260206000200160009054906101000a900473ffffffffffffffffffffffffffffffffffffffff1673ffffffffffffffffffffffffffffffffffffffff1673ffffffffffffffffffffffffffffffffffffffff168152602001908152602001600020600101541415610950576002818154811015156108d257fe5b9060005260206000200160009054906101000a900473ffffffffffffffffffffffffffffffffffffffff16838381518110151561090b57fe5b9060200190602002019073ffffffffffffffffffffffffffffffffffffffff16908173ffffffffffffffffffffffffffffffffffffffff168152505081806001019250505b8080600101915050610833565b829350505050919050565b6000600280549050905090565b60008061098133610793565b90506009543414151561099357600080fd5b6006811480156109a35750600683145b156109b5576109b0610cc5565b6109be565b600091506109bf565b5b50919050565b6000809054906101000a900473ffffffffffffffffffffffffffffffffffffffff1681565b6000806109f633610793565b905060055434141515610a0857600080fd5b600281148015610a185750600283145b15610a3657610a25610c0c565b610a2d610c40565b60019150610a3b565b600091505b50919050565b6000600282815481101515610a5257fe5b9060005260206000200160009054906101000a900473ffffffffffffffffffffffffffffffffffffffff169050919050565b600080610a9033610793565b905060075434141515610aa257600080fd5b600481148015610ab25750600483145b15610ad057610abf610c0c565b610ac7610c40565b60019150610ad5565b600091505b50919050565b6000809054906101000a900473ffffffffffffffffffffffffffffffffffffffff1673ffffffffffffffffffffffffffffffffffffffff163373ffffffffffffffffffffffffffffffffffffffff16141515610b3657600080fd5b600073ffffffffffffffffffffffffffffffffffffffff168173ffffffffffffffffffffffffffffffffffffffff1614151515610b7257600080fd5b806000806101000a81548173ffffffffffffffffffffffffffffffffffffffff021916908373ffffffffffffffffffffffffffffffffffffffff16021790555050565b600080610bc133610793565b905060085434141515610bd357600080fd5b600581148015610be35750600583145b15610c0157610bf0610c0c565b610bf8610c40565b60019150610c06565b600091505b50919050565b6000610c1733610793565b905060036000828152602001908152602001600020600081548092919060019003919050555050565b6000600160003373ffffffffffffffffffffffffffffffffffffffff1673ffffffffffffffffffffffffffffffffffffffff16815260200190815260200160002060010160008154809291906001019190505550610c9d33610793565b9050600360008281526020019081526020016000206000815480929190600101919050555050565b6000610cf260023073ffffffffffffffffffffffffffffffffffffffff1631610da690919063ffffffff16565b90506000809054906101000a900473ffffffffffffffffffffffffffffffffffffffff1673ffffffffffffffffffffffffffffffffffffffff166108fc829081150290604051600060405180830381858888f19350505050158015610d5b573d6000803e3d6000fd5b503373ffffffffffffffffffffffffffffffffffffffff166108fc829081150290604051600060405180830381858888f19350505050158015610da2573d6000803e3d6000fd5b5050565b6000808284811515610db457fe5b0490508091505092915050565b828054600181600116156101000203166002900490600052602060002090601f016020900481019282601f10610e0257805160ff1916838001178555610e30565b82800160010185558215610e30579182015b82811115610e2f578251825591602001919060010190610e14565b5b509050610e3d9190610e41565b5090565b610e6391905b80821115610e5f576000816000905550600101610e47565b5090565b905600a165627a7a72305820f8347748d04fec0665aa0bc7f5b207ba4c6d866cd0e518c3b55e4c76dfb995670029",
  "source": "pragma solidity ^0.4.17;\n\nimport \"./LevelFive.sol\";\nimport \"./safemath.sol\";\n\ncontract LevelSix is LevelFive { \n\n\tusing SafeMath for uint;\n\n\t// @dev This is the amount of ETH a user has to spend to make a guess\n    uint payToPlayFee = .01 ether;\n\n\t// @dev This function is called when a user completes all of the levels\n\t// @dev Half of the ETH in the contract is transfed to the winner (i.e., msg.sender), the other half is shared with the owner of this contract (i.e., our dev team)  \n    function payWinner() internal {\n\n        uint balance = this.balance.div(2);\n\n        owner.transfer(balance);\n\n        msg.sender.transfer(balance);\n    }\n\n\n    // @dev The final level in the game -- if a user guesses correctly, they are paid for completing all of the puzzles\n\tfunction levelSix(uint answer) public payable returns (bool) {\n\n\t\tuint level = currentLevel(msg.sender);\n\t\n\t\trequire(msg.value == payToPlayFee);\n\n\t\tif (level == 6 && answer == 6) {\n            \n\t\t\tpayWinner();\n\t\t\t\n\t\t}\n\t\telse {\n\n            return false;\n        }\n    }\n\n}\n",
  "sourcePath": "/Users/Doug/Desktop/blockchain-game/blockchain-tutorial/contracts/LevelSix.sol",
  "compiler": {
    "name": "solc",
    "version": "0.4.23+commit.124ca40d.Emscripten.clang"
  },
  "schemaVersion": "2.0.0",
  "updatedAt": "2018-05-22T15:51:03.712Z"
}