{
  "contractName": "LevelSix",
  "abi": [
    {
      "constant": true,
      "inputs": [
        {
          "name": "level",
          "type": "uint256"
        }
      ],
      "name": "numberOfUsersPerLevel",
      "outputs": [
        {
          "name": "",
          "type": "uint256"
        }
      ],
      "payable": false,
      "stateMutability": "view",
      "type": "function"
    },
    {
      "constant": true,
      "inputs": [
        {
          "name": "",
          "type": "uint256"
        }
      ],
      "name": "userToOwner",
      "outputs": [
        {
          "name": "",
          "type": "address"
        }
      ],
      "payable": false,
      "stateMutability": "view",
      "type": "function"
    },
    {
      "constant": false,
      "inputs": [
        {
          "name": "answer",
          "type": "uint256"
        }
      ],
      "name": "levelThree",
      "outputs": [
        {
          "name": "",
          "type": "bool"
        }
      ],
      "payable": true,
      "stateMutability": "payable",
      "type": "function"
    },
    {
      "constant": false,
      "inputs": [
        {
          "name": "answer",
          "type": "uint256"
        }
      ],
      "name": "levelOne",
      "outputs": [
        {
          "name": "",
          "type": "bool"
        }
      ],
      "payable": true,
      "stateMutability": "payable",
      "type": "function"
    },
    {
      "constant": false,
      "inputs": [
        {
          "name": "name",
          "type": "string"
        }
      ],
      "name": "createUser",
      "outputs": [],
      "payable": false,
      "stateMutability": "nonpayable",
      "type": "function"
    },
    {
      "constant": true,
      "inputs": [
        {
          "name": "userAddress",
          "type": "address"
        }
      ],
      "name": "currentLevel",
      "outputs": [
        {
          "name": "",
          "type": "uint256"
        }
      ],
      "payable": false,
      "stateMutability": "view",
      "type": "function"
    },
    {
      "constant": true,
      "inputs": [
        {
          "name": "_level",
          "type": "uint256"
        }
      ],
      "name": "usersInLevel",
      "outputs": [
        {
          "name": "",
          "type": "address[]"
        }
      ],
      "payable": false,
      "stateMutability": "view",
      "type": "function"
    },
    {
      "constant": true,
      "inputs": [],
      "name": "numberOfUsers",
      "outputs": [
        {
          "name": "",
          "type": "uint256"
        }
      ],
      "payable": false,
      "stateMutability": "view",
      "type": "function"
    },
    {
      "constant": true,
      "inputs": [],
      "name": "owner",
      "outputs": [
        {
          "name": "",
          "type": "address"
        }
      ],
      "payable": false,
      "stateMutability": "view",
      "type": "function"
    },
    {
      "constant": false,
      "inputs": [
        {
          "name": "answer",
          "type": "uint256"
        }
      ],
      "name": "levelTwo",
      "outputs": [
        {
          "name": "",
          "type": "bool"
        }
      ],
      "payable": true,
      "stateMutability": "payable",
      "type": "function"
    },
    {
      "constant": true,
      "inputs": [
        {
          "name": "index",
          "type": "uint256"
        }
      ],
      "name": "getAddressByIndex",
      "outputs": [
        {
          "name": "",
          "type": "address"
        }
      ],
      "payable": false,
      "stateMutability": "view",
      "type": "function"
    },
    {
      "constant": false,
      "inputs": [
        {
          "name": "answer",
          "type": "uint256"
        }
      ],
      "name": "levelFour",
      "outputs": [
        {
          "name": "",
          "type": "bool"
        }
      ],
      "payable": true,
      "stateMutability": "payable",
      "type": "function"
    },
    {
      "constant": true,
      "inputs": [],
      "name": "users",
      "outputs": [
        {
          "name": "name",
          "type": "string"
        },
        {
          "name": "level",
          "type": "uint256"
        }
      ],
      "payable": false,
      "stateMutability": "view",
      "type": "function"
    },
    {
      "constant": false,
      "inputs": [
        {
          "name": "newOwner",
          "type": "address"
        }
      ],
      "name": "transferOwnership",
      "outputs": [],
      "payable": false,
      "stateMutability": "nonpayable",
      "type": "function"
    },
    {
      "constant": false,
      "inputs": [
        {
          "name": "answer",
          "type": "uint256"
        }
      ],
      "name": "levelFive",
      "outputs": [
        {
          "name": "",
          "type": "bool"
        }
      ],
      "payable": true,
      "stateMutability": "payable",
      "type": "function"
    },
    {
      "constant": false,
      "inputs": [
        {
          "name": "answer",
          "type": "uint256"
        }
      ],
      "name": "levelSix",
      "outputs": [
        {
          "name": "",
          "type": "bool"
        }
      ],
      "payable": true,
      "stateMutability": "payable",
      "type": "function"
    }
  ],
  "bytecode": "0x6060604052662386f26fc10000600755662386f26fc10000600855662386f26fc10000600955662386f26fc10000600a55662386f26fc10000600b55662386f26fc10000600c55336000806101000a81548173ffffffffffffffffffffffffffffffffffffffff021916908373ffffffffffffffffffffffffffffffffffffffff160217905550610f08806100956000396000f3006060604052600436106100e6576000357c0100000000000000000000000000000000000000000000000000000000900463ffffffff1680630c024234146100eb5780630d7b081c14610122578063146cb2591461018557806337c40f4e146101b5578063507ffba5146101e5578063691a037a14610242578063727ff93b1461028f57806375ce46a71461030757806376cf1669146103305780638da5cb5b14610360578063928074fd146103b5578063ce10cf88146103e5578063d94e2ad514610448578063f202027514610478578063f2fde38b1461052a578063fd5da00114610563575b600080fd5b34156100f657600080fd5b61010c6004808035906020019091905050610593565b6040518082815260200191505060405180910390f35b341561012d57600080fd5b61014360048080359060200190919050506105b0565b604051808273ffffffffffffffffffffffffffffffffffffffff1673ffffffffffffffffffffffffffffffffffffffff16815260200191505060405180910390f35b61019b60048080359060200190919050506105e3565b604051808215151515815260200191505060405180910390f35b6101cb600480803590602001909190505061063a565b604051808215151515815260200191505060405180910390f35b34156101f057600080fd5b610240600480803590602001908201803590602001908080601f01602080910402602001604051908101604052809392919081815260200183838082843782019150505050505091905050610691565b005b341561024d57600080fd5b610279600480803573ffffffffffffffffffffffffffffffffffffffff169060200190919050506107c7565b6040518082815260200191505060405180910390f35b341561029a57600080fd5b6102b06004808035906020019091905050610813565b6040518080602001828103825283818151815260200191508051906020019060200280838360005b838110156102f35780820151818401526020810190506102d8565b505050509050019250505060405180910390f35b341561031257600080fd5b61031a61099a565b6040518082815260200191505060405180910390f35b61034660048080359060200190919050506109a7565b604051808215151515815260200191505060405180910390f35b341561036b57600080fd5b6103736109f7565b604051808273ffffffffffffffffffffffffffffffffffffffff1673ffffffffffffffffffffffffffffffffffffffff16815260200191505060405180910390f35b6103cb6004808035906020019091905050610a1c565b604051808215151515815260200191505060405180910390f35b34156103f057600080fd5b6104066004808035906020019091905050610a73565b604051808273ffffffffffffffffffffffffffffffffffffffff1673ffffffffffffffffffffffffffffffffffffffff16815260200191505060405180910390f35b61045e6004808035906020019091905050610ab7565b604051808215151515815260200191505060405180910390f35b341561048357600080fd5b61048b610b0e565b604051808060200183815260200182810382528481815460018160011615610100020316600290048152602001915080546001816001161561010002031660029004801561051a5780601f106104ef5761010080835404028352916020019161051a565b820191906000526020600020905b8154815290600101906020018083116104fd57829003601f168201915b5050935050505060405180910390f35b341561053557600080fd5b610561600480803573ffffffffffffffffffffffffffffffffffffffff16906020019091905050610b1f565b005b6105796004808035906020019091905050610bf9565b604051808215151515815260200191505060405180910390f35b600060066000838152602001908152602001600020549050919050565b60046020528060005260406000206000915054906101000a900473ffffffffffffffffffffffffffffffffffffffff1681565b6000806105ef336107c7565b90506009543414151561060157600080fd5b6003811480156106115750600383145b1561062f5761061e610c50565b610626610c84565b60019150610634565b600091505b50919050565b600080610646336107c7565b90506007543414151561065857600080fd5b6001811480156106685750600183145b1561068657610675610c50565b61067d610c84565b6001915061068b565b600091505b50919050565b6000600580548060010182816106a79190610df7565b9160005260206000209001600033909190916101000a81548173ffffffffffffffffffffffffffffffffffffffff021916908373ffffffffffffffffffffffffffffffffffffffff1602179055505081600360003373ffffffffffffffffffffffffffffffffffffffff1673ffffffffffffffffffffffffffffffffffffffff168152602001908152602001600020600001908051906020019061074c929190610e23565b506001600360003373ffffffffffffffffffffffffffffffffffffffff1673ffffffffffffffffffffffffffffffffffffffff1681526020019081526020016000206001018190555061079e336107c7565b905060066000828152602001908152602001600020600081548092919060010191905055505050565b6000600360008373ffffffffffffffffffffffffffffffffffffffff1673ffffffffffffffffffffffffffffffffffffffff168152602001908152602001600020600101549050919050565b61081b610ea3565b610823610ea3565b60008060066000868152602001908152602001600020546040518059106108475750595b9080825280602002602001820160405250925060009150600090505b60058054905081101561098f57846003600060058481548110151561088457fe5b906000526020600020900160009054906101000a900473ffffffffffffffffffffffffffffffffffffffff1673ffffffffffffffffffffffffffffffffffffffff1673ffffffffffffffffffffffffffffffffffffffff1681526020019081526020016000206001015414156109825760058181548110151561090357fe5b906000526020600020900160009054906101000a900473ffffffffffffffffffffffffffffffffffffffff16838381518110151561093d57fe5b9060200190602002019073ffffffffffffffffffffffffffffffffffffffff16908173ffffffffffffffffffffffffffffffffffffffff168152505081806001019250505b8080600101915050610863565b829350505050919050565b6000600580549050905090565b6000806109b3336107c7565b9050600c54341415156109c557600080fd5b6006811480156109d55750600683145b156109e7576109e2610d09565b6109f0565b600091506109f1565b5b50919050565b6000809054906101000a900473ffffffffffffffffffffffffffffffffffffffff1681565b600080610a28336107c7565b905060085434141515610a3a57600080fd5b600281148015610a4a5750600283145b15610a6857610a57610c50565b610a5f610c84565b60019150610a6d565b600091505b50919050565b6000600582815481101515610a8457fe5b906000526020600020900160009054906101000a900473ffffffffffffffffffffffffffffffffffffffff169050919050565b600080610ac3336107c7565b9050600a5434141515610ad557600080fd5b600481148015610ae55750600483145b15610b0357610af2610c50565b610afa610c84565b60019150610b08565b600091505b50919050565b600180600001908060010154905082565b6000809054906101000a900473ffffffffffffffffffffffffffffffffffffffff1673ffffffffffffffffffffffffffffffffffffffff163373ffffffffffffffffffffffffffffffffffffffff16141515610b7a57600080fd5b600073ffffffffffffffffffffffffffffffffffffffff168173ffffffffffffffffffffffffffffffffffffffff1614151515610bb657600080fd5b806000806101000a81548173ffffffffffffffffffffffffffffffffffffffff021916908373ffffffffffffffffffffffffffffffffffffffff16021790555050565b600080610c05336107c7565b9050600b5434141515610c1757600080fd5b600581148015610c275750600583145b15610c4557610c34610c50565b610c3c610c84565b60019150610c4a565b600091505b50919050565b6000610c5b336107c7565b905060066000828152602001908152602001600020600081548092919060019003919050555050565b6000600360003373ffffffffffffffffffffffffffffffffffffffff1673ffffffffffffffffffffffffffffffffffffffff16815260200190815260200160002060010160008154809291906001019190505550610ce1336107c7565b9050600660008281526020019081526020016000206000815480929190600101919050555050565b6000610d3660023073ffffffffffffffffffffffffffffffffffffffff1631610ddc90919063ffffffff16565b90506000809054906101000a900473ffffffffffffffffffffffffffffffffffffffff1673ffffffffffffffffffffffffffffffffffffffff166108fc829081150290604051600060405180830381858888f193505050501515610d9957600080fd5b3373ffffffffffffffffffffffffffffffffffffffff166108fc829081150290604051600060405180830381858888f193505050501515610dd957600080fd5b50565b6000808284811515610dea57fe5b0490508091505092915050565b815481835581811511610e1e57818360005260206000209182019101610e1d9190610eb7565b5b505050565b828054600181600116156101000203166002900490600052602060002090601f016020900481019282601f10610e6457805160ff1916838001178555610e92565b82800160010185558215610e92579182015b82811115610e91578251825591602001919060010190610e76565b5b509050610e9f9190610eb7565b5090565b602060405190810160405280600081525090565b610ed991905b80821115610ed5576000816000905550600101610ebd565b5090565b905600a165627a7a72305820db0d37d8107558248b98a8460dc912e721c37422a01d7ffe92730297cf84fc600029",
  "source": "pragma solidity ^0.4.17;\n\nimport \"./LevelFive.sol\";\nimport \"./safemath.sol\";\n\ncontract LevelSix is LevelFive { \n\n\tusing SafeMath for uint;\n\n\t// @dev This is the amount of ETH a user has to spend to make a guess\n    uint payToPlayFee = .01 ether;\n\n\t// @dev This function is called when a user completes all of the levels\n\t// @dev Half of the ETH in the contract is transfed to the winner (i.e., msg.sender), the other half is shared with the owner of this contract (i.e., our dev team)  \n    function payWinner() internal {\n\n        uint balance = this.balance.div(2);\n\n        owner.transfer(balance);\n\n        msg.sender.transfer(balance);\n    }\n\n\n    // @dev The final level in the game -- if a user guesses correctly, they are paid for completing all of the puzzles\n\tfunction levelSix(uint answer) public payable returns (bool) {\n\n\t\tuint level = currentLevel(msg.sender);\n\t\n\t\trequire(msg.value == payToPlayFee);\n\n\t\tif (level == 6 && answer == 6) {\n            \n\t\t\tpayWinner();\n\t\t\t\n\t\t}\n\t\telse {\n\n            return false;\n        }\n    }\n\n}\n",
  "sourcePath": "/Users/kseniya/Documents/coding/blockchainCoding/blockchain-tutorial/contracts/LevelSix.sol",
  "compiler": {
    "name": "solc",
    "version": "0.4.19+commit.c4cbbb05.Emscripten.clang"
  },
  "schemaVersion": "2.0.0",
  "updatedAt": "2018-04-06T23:44:46.665Z"
}