{
  "contractName": "LevelSix",
  "abi": [
    {
      "constant": false,
      "inputs": [
        {
          "name": "answer",
          "type": "uint256"
        }
      ],
      "name": "levelThree",
      "outputs": [
        {
          "name": "",
          "type": "bool"
        }
      ],
      "payable": true,
      "stateMutability": "payable",
      "type": "function"
    },
    {
      "constant": true,
      "inputs": [
        {
          "name": "",
          "type": "address"
        }
      ],
      "name": "userLevel",
      "outputs": [
        {
          "name": "",
          "type": "uint256"
        }
      ],
      "payable": false,
      "stateMutability": "view",
      "type": "function"
    },
    {
      "constant": true,
      "inputs": [
        {
          "name": "",
          "type": "uint256"
        }
      ],
      "name": "users",
      "outputs": [
        {
          "name": "name",
          "type": "string"
        },
        {
          "name": "level",
          "type": "uint256"
        }
      ],
      "payable": false,
      "stateMutability": "view",
      "type": "function"
    },
    {
      "constant": false,
      "inputs": [
        {
          "name": "answer",
          "type": "uint256"
        }
      ],
      "name": "levelOne",
      "outputs": [
        {
          "name": "",
          "type": "bool"
        }
      ],
      "payable": true,
      "stateMutability": "payable",
      "type": "function"
    },
    {
      "constant": true,
      "inputs": [
        {
          "name": "userAddress",
          "type": "address"
        }
      ],
      "name": "currentLevel",
      "outputs": [
        {
          "name": "",
          "type": "uint256"
        }
      ],
      "payable": false,
      "stateMutability": "view",
      "type": "function"
    },
    {
      "constant": true,
      "inputs": [],
      "name": "owner",
      "outputs": [
        {
          "name": "",
          "type": "address"
        }
      ],
      "payable": false,
      "stateMutability": "view",
      "type": "function"
    },
    {
      "constant": false,
      "inputs": [
        {
          "name": "answer",
          "type": "uint256"
        }
      ],
      "name": "levelTwo",
      "outputs": [
        {
          "name": "",
          "type": "bool"
        }
      ],
      "payable": true,
      "stateMutability": "payable",
      "type": "function"
    },
    {
      "constant": false,
      "inputs": [
        {
          "name": "answer",
          "type": "uint256"
        }
      ],
      "name": "levelFour",
      "outputs": [
        {
          "name": "",
          "type": "bool"
        }
      ],
      "payable": true,
      "stateMutability": "payable",
      "type": "function"
    },
    {
      "constant": false,
      "inputs": [
        {
          "name": "newOwner",
          "type": "address"
        }
      ],
      "name": "transferOwnership",
      "outputs": [],
      "payable": false,
      "stateMutability": "nonpayable",
      "type": "function"
    },
    {
      "constant": false,
      "inputs": [
        {
          "name": "answer",
          "type": "uint256"
        }
      ],
      "name": "levelFive",
      "outputs": [
        {
          "name": "",
          "type": "bool"
        }
      ],
      "payable": true,
      "stateMutability": "payable",
      "type": "function"
    },
    {
      "anonymous": false,
      "inputs": [
        {
          "indexed": true,
          "name": "from",
          "type": "address"
        }
      ],
      "name": "IncrementUserLevel",
      "type": "event"
    },
    {
      "constant": false,
      "inputs": [
        {
          "name": "answer",
          "type": "uint256"
        }
      ],
      "name": "levelSix",
      "outputs": [
        {
          "name": "",
          "type": "bool"
        }
      ],
      "payable": true,
      "stateMutability": "payable",
      "type": "function"
    }
  ],
  "bytecode": "0x6060604052662386f26fc10000600455662386f26fc10000600555662386f26fc10000600655662386f26fc10000600755662386f26fc10000600855662386f26fc10000600955336000806101000a81548173ffffffffffffffffffffffffffffffffffffffff021916908373ffffffffffffffffffffffffffffffffffffffff1602179055506109ee806100956000396000f3006060604052600436106100af576000357c0100000000000000000000000000000000000000000000000000000000900463ffffffff168063146cb259146100b4578063280e31cc146100e4578063365b98b21461013157806337c40f4e146101f1578063691a037a1461022157806376cf16691461026e5780638da5cb5b1461029e578063928074fd146102f3578063d94e2ad514610323578063f2fde38b14610353578063fd5da0011461038c575b600080fd5b6100ca60048080359060200190919050506103bc565b604051808215151515815260200191505060405180910390f35b34156100ef57600080fd5b61011b600480803573ffffffffffffffffffffffffffffffffffffffff1690602001909190505061040b565b6040518082815260200191505060405180910390f35b341561013c57600080fd5b6101526004808035906020019091905050610423565b60405180806020018381526020018281038252848181546001816001161561010002031660029004815260200191508054600181600116156101000203166002900480156101e15780601f106101b6576101008083540402835291602001916101e1565b820191906000526020600020905b8154815290600101906020018083116101c457829003601f168201915b5050935050505060405180910390f35b6102076004808035906020019091905050610455565b604051808215151515815260200191505060405180910390f35b341561022c57600080fd5b610258600480803573ffffffffffffffffffffffffffffffffffffffff169060200190919050506104a4565b6040518082815260200191505060405180910390f35b61028460048080359060200190919050506104ed565b604051808215151515815260200191505060405180910390f35b34156102a957600080fd5b6102b161053d565b604051808273ffffffffffffffffffffffffffffffffffffffff1673ffffffffffffffffffffffffffffffffffffffff16815260200191505060405180910390f35b6103096004808035906020019091905050610562565b604051808215151515815260200191505060405180910390f35b61033960048080359060200190919050506105b1565b604051808215151515815260200191505060405180910390f35b341561035e57600080fd5b61038a600480803573ffffffffffffffffffffffffffffffffffffffff16906020019091905050610600565b005b6103a260048080359060200190919050506106da565b604051808215151515815260200191505060405180910390f35b6000806103c8336104a4565b9050600654341415156103da57600080fd5b6003811480156103ea5750600383145b15610400576103f7610729565b60019150610405565b600091505b50919050565b60026020528060005260406000206000915090505481565b60018181548110151561043257fe5b906000526020600020906002020160009150905080600001908060010154905082565b600080610461336104a4565b90506004543414151561047357600080fd5b6000811480156104835750600183145b1561049957610490610729565b6001915061049e565b600091505b50919050565b6000600260008373ffffffffffffffffffffffffffffffffffffffff1673ffffffffffffffffffffffffffffffffffffffff168152602001908152602001600020549050919050565b6000806104f9336104a4565b90506009543414151561050b57600080fd5b60068114801561051b5750600683145b1561052d576105286108b6565b610536565b60009150610537565b5b50919050565b6000809054906101000a900473ffffffffffffffffffffffffffffffffffffffff1681565b60008061056e336104a4565b90506005543414151561058057600080fd5b6002811480156105905750600283145b156105a65761059d610729565b600191506105ab565b600091505b50919050565b6000806105bd336104a4565b9050600754341415156105cf57600080fd5b6004811480156105df5750600483145b156105f5576105ec610729565b600191506105fa565b600091505b50919050565b6000809054906101000a900473ffffffffffffffffffffffffffffffffffffffff1673ffffffffffffffffffffffffffffffffffffffff163373ffffffffffffffffffffffffffffffffffffffff1614151561065b57600080fd5b600073ffffffffffffffffffffffffffffffffffffffff168173ffffffffffffffffffffffffffffffffffffffff161415151561069757600080fd5b806000806101000a81548173ffffffffffffffffffffffffffffffffffffffff021916908373ffffffffffffffffffffffffffffffffffffffff16021790555050565b6000806106e6336104a4565b9050600854341415156106f857600080fd5b6005811480156107085750600583145b1561071e57610715610729565b60019150610723565b600091505b50919050565b60003373ffffffffffffffffffffffffffffffffffffffff167fdf3ef0b951bc6b5aa1fff89f38fb5e66d167a26134567a55213eaf5d8ea8423860405160405180910390a2610777336104a4565b9050600081141561081c576107d460028060003373ffffffffffffffffffffffffffffffffffffffff1673ffffffffffffffffffffffffffffffffffffffff1681526020019081526020016000205461098990919063ffffffff16565b600260003373ffffffffffffffffffffffffffffffffffffffff1673ffffffffffffffffffffffffffffffffffffffff168152602001908152602001600020819055506108b3565b61086f6001600260003373ffffffffffffffffffffffffffffffffffffffff1673ffffffffffffffffffffffffffffffffffffffff1681526020019081526020016000205461098990919063ffffffff16565b600260003373ffffffffffffffffffffffffffffffffffffffff1673ffffffffffffffffffffffffffffffffffffffff168152602001908152602001600020819055505b50565b60006108e360023073ffffffffffffffffffffffffffffffffffffffff16316109a790919063ffffffff16565b90506000809054906101000a900473ffffffffffffffffffffffffffffffffffffffff1673ffffffffffffffffffffffffffffffffffffffff166108fc829081150290604051600060405180830381858888f19350505050151561094657600080fd5b3373ffffffffffffffffffffffffffffffffffffffff166108fc829081150290604051600060405180830381858888f19350505050151561098657600080fd5b50565b600080828401905083811015151561099d57fe5b8091505092915050565b60008082848115156109b557fe5b04905080915050929150505600a165627a7a72305820c271ca3c6a97fc7dae60a0a67b822386f433746ce214f46761d5cb526d17a9fb0029",
  "source": "pragma solidity ^0.4.17;\n\nimport \"./LevelFive.sol\";\nimport \"./safemath.sol\";\n\ncontract LevelSix is LevelFive { \n\n\tusing SafeMath for uint;\n\n\t// \tamount a user has to pay to make a guess\n    uint payToPlayFee = .01 ether;\n\n    function payWinner() internal {\n\n        uint balance = this.balance.div(2);\n\n    //   \tbalanceToSend = balance.div(2);\n\n        owner.transfer(balance);\n\n        msg.sender.transfer(balance);\n    }\n\n\tfunction levelSix(uint answer) public payable returns (bool) {\n\n\t\tuint level = currentLevel(msg.sender);\n\t\n\t\trequire(msg.value == payToPlayFee);\n\n\t\tif (level == 6 && answer == 6) {\n\n\t\t\tpayWinner();\n\t\t\t\n\t\t}\n\t\telse {\n\n            return false;\n        }\n    }\n\n}\n",
  "sourcePath": "/Users/Doug/Desktop/blockchain-game/blockchain-tutorial/contracts/LevelSix.sol",
  "compiler": {
    "name": "solc",
    "version": "0.4.19+commit.c4cbbb05.Emscripten.clang"
  },
  "schemaVersion": "2.0.0",
  "updatedAt": "2018-04-02T18:00:29.429Z"
}