{
  "contractName": "LevelFive",
  "abi": [
    {
      "constant": false,
      "inputs": [
        {
          "name": "answer",
          "type": "uint256"
        }
      ],
      "name": "levelThree",
      "outputs": [
        {
          "name": "",
          "type": "bool"
        }
      ],
      "payable": true,
      "stateMutability": "payable",
      "type": "function"
    },
    {
      "constant": true,
      "inputs": [
        {
          "name": "",
          "type": "address"
        }
      ],
      "name": "userLevel",
      "outputs": [
        {
          "name": "",
          "type": "uint256"
        }
      ],
      "payable": false,
      "stateMutability": "view",
      "type": "function"
    },
    {
      "constant": true,
      "inputs": [
        {
          "name": "",
          "type": "uint256"
        }
      ],
      "name": "users",
      "outputs": [
        {
          "name": "name",
          "type": "string"
        },
        {
          "name": "level",
          "type": "uint256"
        }
      ],
      "payable": false,
      "stateMutability": "view",
      "type": "function"
    },
    {
      "constant": false,
      "inputs": [
        {
          "name": "answer",
          "type": "uint256"
        }
      ],
      "name": "levelOne",
      "outputs": [
        {
          "name": "",
          "type": "bool"
        }
      ],
      "payable": true,
      "stateMutability": "payable",
      "type": "function"
    },
    {
      "constant": true,
      "inputs": [
        {
          "name": "userAddress",
          "type": "address"
        }
      ],
      "name": "currentLevel",
      "outputs": [
        {
          "name": "",
          "type": "uint256"
        }
      ],
      "payable": false,
      "stateMutability": "view",
      "type": "function"
    },
    {
      "constant": true,
      "inputs": [],
      "name": "owner",
      "outputs": [
        {
          "name": "",
          "type": "address"
        }
      ],
      "payable": false,
      "stateMutability": "view",
      "type": "function"
    },
    {
      "constant": false,
      "inputs": [
        {
          "name": "answer",
          "type": "uint256"
        }
      ],
      "name": "levelTwo",
      "outputs": [
        {
          "name": "",
          "type": "bool"
        }
      ],
      "payable": true,
      "stateMutability": "payable",
      "type": "function"
    },
    {
      "constant": false,
      "inputs": [
        {
          "name": "answer",
          "type": "uint256"
        }
      ],
      "name": "levelFour",
      "outputs": [
        {
          "name": "",
          "type": "bool"
        }
      ],
      "payable": true,
      "stateMutability": "payable",
      "type": "function"
    },
    {
      "constant": false,
      "inputs": [
        {
          "name": "newOwner",
          "type": "address"
        }
      ],
      "name": "transferOwnership",
      "outputs": [],
      "payable": false,
      "stateMutability": "nonpayable",
      "type": "function"
    },
    {
      "anonymous": false,
      "inputs": [
        {
          "indexed": true,
          "name": "from",
          "type": "address"
        }
      ],
      "name": "IncrementUserLevel",
      "type": "event"
    },
    {
      "constant": false,
      "inputs": [
        {
          "name": "answer",
          "type": "uint256"
        }
      ],
      "name": "levelFive",
      "outputs": [
        {
          "name": "",
          "type": "bool"
        }
      ],
      "payable": true,
      "stateMutability": "payable",
      "type": "function"
    }
  ],
  "bytecode": "0x6060604052662386f26fc10000600455662386f26fc10000600555662386f26fc10000600655662386f26fc10000600755662386f26fc10000600855336000806101000a81548173ffffffffffffffffffffffffffffffffffffffff021916908373ffffffffffffffffffffffffffffffffffffffff1602179055506107c88061008a6000396000f3006060604052600436106100a4576000357c0100000000000000000000000000000000000000000000000000000000900463ffffffff168063146cb259146100a9578063280e31cc146100d9578063365b98b21461012657806337c40f4e146101e6578063691a037a146102165780638da5cb5b14610263578063928074fd146102b8578063d94e2ad5146102e8578063f2fde38b14610318578063fd5da00114610351575b600080fd5b6100bf6004808035906020019091905050610381565b604051808215151515815260200191505060405180910390f35b34156100e457600080fd5b610110600480803573ffffffffffffffffffffffffffffffffffffffff169060200190919050506103d0565b6040518082815260200191505060405180910390f35b341561013157600080fd5b61014760048080359060200190919050506103e8565b60405180806020018381526020018281038252848181546001816001161561010002031660029004815260200191508054600181600116156101000203166002900480156101d65780601f106101ab576101008083540402835291602001916101d6565b820191906000526020600020905b8154815290600101906020018083116101b957829003601f168201915b5050935050505060405180910390f35b6101fc600480803590602001909190505061041a565b604051808215151515815260200191505060405180910390f35b341561022157600080fd5b61024d600480803573ffffffffffffffffffffffffffffffffffffffff16906020019091905050610469565b6040518082815260200191505060405180910390f35b341561026e57600080fd5b6102766104b2565b604051808273ffffffffffffffffffffffffffffffffffffffff1673ffffffffffffffffffffffffffffffffffffffff16815260200191505060405180910390f35b6102ce60048080359060200190919050506104d7565b604051808215151515815260200191505060405180910390f35b6102fe6004808035906020019091905050610526565b604051808215151515815260200191505060405180910390f35b341561032357600080fd5b61034f600480803573ffffffffffffffffffffffffffffffffffffffff16906020019091905050610575565b005b610367600480803590602001909190505061064f565b604051808215151515815260200191505060405180910390f35b60008061038d33610469565b90506006543414151561039f57600080fd5b6003811480156103af5750600383145b156103c5576103bc61069e565b600191506103ca565b600091505b50919050565b60026020528060005260406000206000915090505481565b6001818154811015156103f757fe5b906000526020600020906002020160009150905080600001908060010154905082565b60008061042633610469565b90506004543414151561043857600080fd5b6000811480156104485750600183145b1561045e5761045561069e565b60019150610463565b600091505b50919050565b6000600260008373ffffffffffffffffffffffffffffffffffffffff1673ffffffffffffffffffffffffffffffffffffffff168152602001908152602001600020549050919050565b6000809054906101000a900473ffffffffffffffffffffffffffffffffffffffff1681565b6000806104e333610469565b9050600554341415156104f557600080fd5b6002811480156105055750600283145b1561051b5761051261069e565b60019150610520565b600091505b50919050565b60008061053233610469565b90506007543414151561054457600080fd5b6004811480156105545750600483145b1561056a5761056161069e565b6001915061056f565b600091505b50919050565b6000809054906101000a900473ffffffffffffffffffffffffffffffffffffffff1673ffffffffffffffffffffffffffffffffffffffff163373ffffffffffffffffffffffffffffffffffffffff161415156105d057600080fd5b600073ffffffffffffffffffffffffffffffffffffffff168173ffffffffffffffffffffffffffffffffffffffff161415151561060c57600080fd5b806000806101000a81548173ffffffffffffffffffffffffffffffffffffffff021916908373ffffffffffffffffffffffffffffffffffffffff16021790555050565b60008061065b33610469565b90506008543414151561066d57600080fd5b60058114801561067d5750600583145b156106935761068a61069e565b60019150610698565b600091505b50919050565b60003373ffffffffffffffffffffffffffffffffffffffff167fdf3ef0b951bc6b5aa1fff89f38fb5e66d167a26134567a55213eaf5d8ea8423860405160405180910390a26106ec33610469565b905060008114156107495760028060003373ffffffffffffffffffffffffffffffffffffffff1673ffffffffffffffffffffffffffffffffffffffff16815260200190815260200160002060008282540192505081905550610799565b600260003373ffffffffffffffffffffffffffffffffffffffff1673ffffffffffffffffffffffffffffffffffffffff168152602001908152602001600020600081548092919060010191905055505b505600a165627a7a72305820e2825a0ea22605020d7e6adb0989019aa99aeba2ce95eff87c757846a27456060029",
  "source": "pragma solidity ^0.4.17;\n\nimport \"./LevelFour.sol\";\n\ncontract LevelFive is LevelFour { \n\n\t// \tamount a user has to pay to make a guess\n    uint payToPlayFee = .01 ether;\n\n\tfunction levelFive(uint answer) public payable returns (bool) {\n\t\t\t\n\t\t\tuint level = currentLevel(msg.sender);\t\t\n\n\t\t\trequire(msg.value == payToPlayFee);\n\n\t\t\tif (level == 5 && answer == 5) {\n\n\t\t\t\tincrementLevel();\n\n\t\t\t\treturn true;\n\t\t\t}\n\t\t\telse {\n\n            \treturn false;\n        \t}\n\t\t}\n\n}\n",
  "sourcePath": "/Users/Doug/Desktop/blockchain-game/blockchain-tutorial/contracts/LevelFive.sol",
  "compiler": {
    "name": "solc",
    "version": "0.4.19+commit.c4cbbb05.Emscripten.clang"
  },
  "schemaVersion": "2.0.0",
  "updatedAt": "2018-03-30T22:17:56.041Z"
}