{
  "contractName": "LevelThree",
  "abi": [
    {
      "constant": true,
      "inputs": [
        {
          "name": "",
          "type": "address"
        }
      ],
      "name": "userLevel",
      "outputs": [
        {
          "name": "",
          "type": "uint256"
        }
      ],
      "payable": false,
      "stateMutability": "view",
      "type": "function"
    },
    {
      "constant": true,
      "inputs": [
        {
          "name": "",
          "type": "uint256"
        }
      ],
      "name": "users",
      "outputs": [
        {
          "name": "name",
          "type": "string"
        },
        {
          "name": "level",
          "type": "uint256"
        }
      ],
      "payable": false,
      "stateMutability": "view",
      "type": "function"
    },
    {
      "constant": false,
      "inputs": [
        {
          "name": "answer",
          "type": "uint256"
        }
      ],
      "name": "levelOne",
      "outputs": [
        {
          "name": "",
          "type": "bool"
        }
      ],
      "payable": true,
      "stateMutability": "payable",
      "type": "function"
    },
    {
      "constant": true,
      "inputs": [
        {
          "name": "userAddress",
          "type": "address"
        }
      ],
      "name": "currentLevel",
      "outputs": [
        {
          "name": "",
          "type": "uint256"
        }
      ],
      "payable": false,
      "stateMutability": "view",
      "type": "function"
    },
    {
      "constant": true,
      "inputs": [],
      "name": "owner",
      "outputs": [
        {
          "name": "",
          "type": "address"
        }
      ],
      "payable": false,
      "stateMutability": "view",
      "type": "function"
    },
    {
      "constant": false,
      "inputs": [
        {
          "name": "answer",
          "type": "uint256"
        }
      ],
      "name": "levelTwo",
      "outputs": [
        {
          "name": "",
          "type": "bool"
        }
      ],
      "payable": true,
      "stateMutability": "payable",
      "type": "function"
    },
    {
      "constant": false,
      "inputs": [
        {
          "name": "newOwner",
          "type": "address"
        }
      ],
      "name": "transferOwnership",
      "outputs": [],
      "payable": false,
      "stateMutability": "nonpayable",
      "type": "function"
    },
    {
      "anonymous": false,
      "inputs": [
        {
          "indexed": true,
          "name": "from",
          "type": "address"
        }
      ],
      "name": "IncrementUserLevel",
      "type": "event"
    },
    {
      "constant": false,
      "inputs": [
        {
          "name": "answer",
          "type": "uint256"
        }
      ],
      "name": "levelThree",
      "outputs": [
        {
          "name": "",
          "type": "bool"
        }
      ],
      "payable": true,
      "stateMutability": "payable",
      "type": "function"
    }
  ],
  "bytecode": "0x6060604052662386f26fc10000600455662386f26fc10000600555662386f26fc10000600655336000806101000a81548173ffffffffffffffffffffffffffffffffffffffff021916908373ffffffffffffffffffffffffffffffffffffffff1602179055506106b4806100746000396000f30060606040526004361061008e576000357c0100000000000000000000000000000000000000000000000000000000900463ffffffff168063146cb25914610093578063280e31cc146100c3578063365b98b21461011057806337c40f4e146101d0578063691a037a146102005780638da5cb5b1461024d578063928074fd146102a2578063f2fde38b146102d2575b600080fd5b6100a9600480803590602001909190505061030b565b604051808215151515815260200191505060405180910390f35b34156100ce57600080fd5b6100fa600480803573ffffffffffffffffffffffffffffffffffffffff1690602001909190505061035a565b6040518082815260200191505060405180910390f35b341561011b57600080fd5b6101316004808035906020019091905050610372565b60405180806020018381526020018281038252848181546001816001161561010002031660029004815260200191508054600181600116156101000203166002900480156101c05780601f10610195576101008083540402835291602001916101c0565b820191906000526020600020905b8154815290600101906020018083116101a357829003601f168201915b5050935050505060405180910390f35b6101e660048080359060200190919050506103a4565b604051808215151515815260200191505060405180910390f35b341561020b57600080fd5b610237600480803573ffffffffffffffffffffffffffffffffffffffff169060200190919050506103f3565b6040518082815260200191505060405180910390f35b341561025857600080fd5b61026061043c565b604051808273ffffffffffffffffffffffffffffffffffffffff1673ffffffffffffffffffffffffffffffffffffffff16815260200191505060405180910390f35b6102b86004808035906020019091905050610461565b604051808215151515815260200191505060405180910390f35b34156102dd57600080fd5b610309600480803573ffffffffffffffffffffffffffffffffffffffff169060200190919050506104b0565b005b600080610317336103f3565b90506006543414151561032957600080fd5b6003811480156103395750600383145b1561034f5761034661058a565b60019150610354565b600091505b50919050565b60026020528060005260406000206000915090505481565b60018181548110151561038157fe5b906000526020600020906002020160009150905080600001908060010154905082565b6000806103b0336103f3565b9050600454341415156103c257600080fd5b6000811480156103d25750600183145b156103e8576103df61058a565b600191506103ed565b600091505b50919050565b6000600260008373ffffffffffffffffffffffffffffffffffffffff1673ffffffffffffffffffffffffffffffffffffffff168152602001908152602001600020549050919050565b6000809054906101000a900473ffffffffffffffffffffffffffffffffffffffff1681565b60008061046d336103f3565b90506005543414151561047f57600080fd5b60028114801561048f5750600283145b156104a55761049c61058a565b600191506104aa565b600091505b50919050565b6000809054906101000a900473ffffffffffffffffffffffffffffffffffffffff1673ffffffffffffffffffffffffffffffffffffffff163373ffffffffffffffffffffffffffffffffffffffff1614151561050b57600080fd5b600073ffffffffffffffffffffffffffffffffffffffff168173ffffffffffffffffffffffffffffffffffffffff161415151561054757600080fd5b806000806101000a81548173ffffffffffffffffffffffffffffffffffffffff021916908373ffffffffffffffffffffffffffffffffffffffff16021790555050565b60003373ffffffffffffffffffffffffffffffffffffffff167fdf3ef0b951bc6b5aa1fff89f38fb5e66d167a26134567a55213eaf5d8ea8423860405160405180910390a26105d8336103f3565b905060008114156106355760028060003373ffffffffffffffffffffffffffffffffffffffff1673ffffffffffffffffffffffffffffffffffffffff16815260200190815260200160002060008282540192505081905550610685565b600260003373ffffffffffffffffffffffffffffffffffffffff1673ffffffffffffffffffffffffffffffffffffffff168152602001908152602001600020600081548092919060010191905055505b505600a165627a7a72305820c857d51f0a46645bde8a3c5f47d298dfea8ea08cfead9590b613408d535dc21b0029",
  "source": "pragma solidity ^0.4.17;\n\nimport \"./LevelTwo.sol\";\n\ncontract LevelThree is LevelTwo { \n\n\t// \tamount a user has to pay to make a guess\n    uint payToPlayFee = .01 ether;\n\n\tfunction levelThree(uint answer) public payable returns (bool) {\n\t\t\t\n\t\t\tuint level = currentLevel(msg.sender);\t\t\n\n\t\t\trequire(msg.value == payToPlayFee);\n\n\t\t\tif (level == 3 && answer == 3) {\n\n\t\t\t\tincrementLevel();\n\n\t\t\t\treturn true;\n\t\t\t}\n\t\t\telse {\n\n            \treturn false;\n        \t}\n\t\t}\n\n}\n",
  "sourcePath": "/Users/Doug/Desktop/blockchain-game/blockchain-tutorial/contracts/LevelThree.sol",
  "compiler": {
    "name": "solc",
    "version": "0.4.19+commit.c4cbbb05.Emscripten.clang"
  },
  "schemaVersion": "2.0.0",
  "updatedAt": "2018-03-30T22:17:55.633Z"
}