{
  "contractName": "LevelOne",
  "abi": [
    {
      "constant": true,
      "inputs": [
        {
          "name": "level",
          "type": "uint256"
        }
      ],
      "name": "numberOfUsersPerLevel",
      "outputs": [
        {
          "name": "",
          "type": "uint256"
        }
      ],
      "payable": false,
      "stateMutability": "view",
      "type": "function"
    },
    {
      "constant": true,
      "inputs": [
        {
          "name": "",
          "type": "uint256"
        }
      ],
      "name": "userAddresses",
      "outputs": [
        {
          "name": "",
          "type": "address"
        }
      ],
      "payable": false,
      "stateMutability": "view",
      "type": "function"
    },
    {
      "constant": false,
      "inputs": [
        {
          "name": "name",
          "type": "string"
        }
      ],
      "name": "createUser",
      "outputs": [],
      "payable": false,
      "stateMutability": "nonpayable",
      "type": "function"
    },
    {
      "constant": true,
      "inputs": [
        {
          "name": "userAddress",
          "type": "address"
        }
      ],
      "name": "currentLevel",
      "outputs": [
        {
          "name": "",
          "type": "uint256"
        }
      ],
      "payable": false,
      "stateMutability": "view",
      "type": "function"
    },
    {
      "constant": true,
      "inputs": [
        {
          "name": "_level",
          "type": "uint256"
        }
      ],
      "name": "usersInLevel",
      "outputs": [
        {
          "name": "",
          "type": "address[]"
        }
      ],
      "payable": false,
      "stateMutability": "view",
      "type": "function"
    },
    {
      "constant": true,
      "inputs": [],
      "name": "numberOfUsers",
      "outputs": [
        {
          "name": "",
          "type": "uint256"
        }
      ],
      "payable": false,
      "stateMutability": "view",
      "type": "function"
    },
    {
      "constant": true,
      "inputs": [],
      "name": "owner",
      "outputs": [
        {
          "name": "",
          "type": "address"
        }
      ],
      "payable": false,
      "stateMutability": "view",
      "type": "function"
    },
    {
      "constant": true,
      "inputs": [
        {
          "name": "index",
          "type": "uint256"
        }
      ],
      "name": "getAddressByIndex",
      "outputs": [
        {
          "name": "",
          "type": "address"
        }
      ],
      "payable": false,
      "stateMutability": "view",
      "type": "function"
    },
    {
      "constant": false,
      "inputs": [
        {
          "name": "newOwner",
          "type": "address"
        }
      ],
      "name": "transferOwnership",
      "outputs": [],
      "payable": false,
      "stateMutability": "nonpayable",
      "type": "function"
    },
    {
      "constant": false,
      "inputs": [
        {
          "name": "answer",
          "type": "uint256"
        }
      ],
      "name": "levelOne",
      "outputs": [
        {
          "name": "",
          "type": "bool"
        }
      ],
      "payable": true,
      "stateMutability": "payable",
      "type": "function"
    }
  ],
  "bytecode": "0x6080604052662386f26fc10000600455336000806101000a81548173ffffffffffffffffffffffffffffffffffffffff021916908373ffffffffffffffffffffffffffffffffffffffff160217905550610a9b8061005e6000396000f3006080604052600436106100a4576000357c0100000000000000000000000000000000000000000000000000000000900463ffffffff1680630c024234146100a957806337c40f4e146100ea578063502c9bd514610122578063507ffba51461018f578063691a037a146101f8578063727ff93b1461024f57806375ce46a7146102d15780638da5cb5b146102fc578063ce10cf8814610353578063f2fde38b146103c0575b600080fd5b3480156100b557600080fd5b506100d460048036038101908080359060200190929190505050610403565b6040518082815260200191505060405180910390f35b61010860048036038101908080359060200190929190505050610420565b604051808215151515815260200191505060405180910390f35b34801561012e57600080fd5b5061014d60048036038101908080359060200190929190505050610477565b604051808273ffffffffffffffffffffffffffffffffffffffff1673ffffffffffffffffffffffffffffffffffffffff16815260200191505060405180910390f35b34801561019b57600080fd5b506101f6600480360381019080803590602001908201803590602001908080601f01602080910402602001604051908101604052809392919081815260200183838082843782019150505050505091929192905050506104b5565b005b34801561020457600080fd5b50610239600480360381019080803573ffffffffffffffffffffffffffffffffffffffff1690602001909291905050506105ed565b6040518082815260200191505060405180910390f35b34801561025b57600080fd5b5061027a60048036038101908080359060200190929190505050610639565b6040518080602001828103825283818151815260200191508051906020019060200280838360005b838110156102bd5780820151818401526020810190506102a2565b505050509050019250505060405180910390f35b3480156102dd57600080fd5b506102e66107c2565b6040518082815260200191505060405180910390f35b34801561030857600080fd5b506103116107cf565b604051808273ffffffffffffffffffffffffffffffffffffffff1673ffffffffffffffffffffffffffffffffffffffff16815260200191505060405180910390f35b34801561035f57600080fd5b5061037e600480360381019080803590602001909291905050506107f4565b604051808273ffffffffffffffffffffffffffffffffffffffff1673ffffffffffffffffffffffffffffffffffffffff16815260200191505060405180910390f35b3480156103cc57600080fd5b50610401600480360381019080803573ffffffffffffffffffffffffffffffffffffffff169060200190929190505050610837565b005b600060036000838152602001908152602001600020549050919050565b60008061042c336105ed565b90506004543414151561043e57600080fd5b60018114801561044e5750600183145b1561046c5761045b610911565b610463610945565b60019150610471565b600091505b50919050565b60028181548110151561048657fe5b906000526020600020016000915054906101000a900473ffffffffffffffffffffffffffffffffffffffff1681565b600060023390806001815401808255809150509060018203906000526020600020016000909192909190916101000a81548173ffffffffffffffffffffffffffffffffffffffff021916908373ffffffffffffffffffffffffffffffffffffffff1602179055505081600160003373ffffffffffffffffffffffffffffffffffffffff1673ffffffffffffffffffffffffffffffffffffffff16815260200190815260200160002060000190805190602001906105739291906109ca565b5060018060003373ffffffffffffffffffffffffffffffffffffffff1673ffffffffffffffffffffffffffffffffffffffff168152602001908152602001600020600101819055506105c4336105ed565b905060036000828152602001908152602001600020600081548092919060010191905055505050565b6000600160008373ffffffffffffffffffffffffffffffffffffffff1673ffffffffffffffffffffffffffffffffffffffff168152602001908152602001600020600101549050919050565b60608060008060036000868152602001908152602001600020546040519080825280602002602001820160405280156106815781602001602082028038833980820191505090505b50925060009150600090505b6002805490508110156107b75784600160006002848154811015156106ae57fe5b9060005260206000200160009054906101000a900473ffffffffffffffffffffffffffffffffffffffff1673ffffffffffffffffffffffffffffffffffffffff1673ffffffffffffffffffffffffffffffffffffffff1681526020019081526020016000206001015414156107aa5760028181548110151561072c57fe5b9060005260206000200160009054906101000a900473ffffffffffffffffffffffffffffffffffffffff16838381518110151561076557fe5b9060200190602002019073ffffffffffffffffffffffffffffffffffffffff16908173ffffffffffffffffffffffffffffffffffffffff168152505081806001019250505b808060010191505061068d565b829350505050919050565b6000600280549050905090565b6000809054906101000a900473ffffffffffffffffffffffffffffffffffffffff1681565b600060028281548110151561080557fe5b9060005260206000200160009054906101000a900473ffffffffffffffffffffffffffffffffffffffff169050919050565b6000809054906101000a900473ffffffffffffffffffffffffffffffffffffffff1673ffffffffffffffffffffffffffffffffffffffff163373ffffffffffffffffffffffffffffffffffffffff1614151561089257600080fd5b600073ffffffffffffffffffffffffffffffffffffffff168173ffffffffffffffffffffffffffffffffffffffff16141515156108ce57600080fd5b806000806101000a81548173ffffffffffffffffffffffffffffffffffffffff021916908373ffffffffffffffffffffffffffffffffffffffff16021790555050565b600061091c336105ed565b905060036000828152602001908152602001600020600081548092919060019003919050555050565b6000600160003373ffffffffffffffffffffffffffffffffffffffff1673ffffffffffffffffffffffffffffffffffffffff168152602001908152602001600020600101600081548092919060010191905055506109a2336105ed565b9050600360008281526020019081526020016000206000815480929190600101919050555050565b828054600181600116156101000203166002900490600052602060002090601f016020900481019282601f10610a0b57805160ff1916838001178555610a39565b82800160010185558215610a39579182015b82811115610a38578251825591602001919060010190610a1d565b5b509050610a469190610a4a565b5090565b610a6c91905b80821115610a68576000816000905550600101610a50565b5090565b905600a165627a7a72305820371f0b824f6f6e11ce10b46da94b093f2f8d20eaa46a299224e83d56442307140029",
  "source": "pragma solidity ^0.4.17;\n\nimport \"./UserFactory.sol\";\n\ncontract LevelOne is UserFactory { \n\n\t// @dev This is the amount of ETH a user has to spend to make a guess\n    uint payToPlayFee = .01 ether;\n\n    // @dev If a user guesses correctly, the incrementLevel() is called and they advance to the next level \n    function levelOne(uint answer) public payable returns (bool) {\n\n\t\t\tuint level = currentLevel(msg.sender); \n\n\t\t\trequire(msg.value == payToPlayFee);\n\n\t\t\tif (level == 1 && answer == 1) {\n\t\t\t\tremoveFromPriorLevel();\n\n\t\t\t\tincrementLevel();\n\n\t\t\t\treturn true;\n\t\t\t}\n\t\t\telse {\n\n            \treturn false;\n        \t}\n    }\n\n}\n",
  "sourcePath": "/Users/Doug/Desktop/blockchain-game/blockchain-tutorial/contracts/LevelOne.sol",
  "compiler": {
    "name": "solc",
    "version": "0.4.23+commit.124ca40d.Emscripten.clang"
  },
  "schemaVersion": "2.0.0",
  "updatedAt": "2018-05-22T15:51:03.711Z"
}