{
  "contractName": "LevelFive",
  "abi": [
    {
      "constant": true,
      "inputs": [
        {
          "name": "level",
          "type": "uint256"
        }
      ],
      "name": "numberOfUsersPerLevel",
      "outputs": [
        {
          "name": "",
          "type": "uint256"
        }
      ],
      "payable": false,
      "stateMutability": "view",
      "type": "function"
    },
    {
      "constant": true,
      "inputs": [
        {
          "name": "",
          "type": "uint256"
        }
      ],
      "name": "userToOwner",
      "outputs": [
        {
          "name": "",
          "type": "address"
        }
      ],
      "payable": false,
      "stateMutability": "view",
      "type": "function"
    },
    {
      "constant": false,
      "inputs": [
        {
          "name": "answer",
          "type": "uint256"
        }
      ],
      "name": "levelThree",
      "outputs": [
        {
          "name": "",
          "type": "bool"
        }
      ],
      "payable": true,
      "stateMutability": "payable",
      "type": "function"
    },
    {
      "constant": false,
      "inputs": [
        {
          "name": "answer",
          "type": "uint256"
        }
      ],
      "name": "levelOne",
      "outputs": [
        {
          "name": "",
          "type": "bool"
        }
      ],
      "payable": true,
      "stateMutability": "payable",
      "type": "function"
    },
    {
      "constant": false,
      "inputs": [
        {
          "name": "name",
          "type": "string"
        }
      ],
      "name": "createUser",
      "outputs": [],
      "payable": false,
      "stateMutability": "nonpayable",
      "type": "function"
    },
    {
      "constant": true,
      "inputs": [
        {
          "name": "userAddress",
          "type": "address"
        }
      ],
      "name": "currentLevel",
      "outputs": [
        {
          "name": "",
          "type": "uint256"
        }
      ],
      "payable": false,
      "stateMutability": "view",
      "type": "function"
    },
    {
      "constant": true,
      "inputs": [
        {
          "name": "_level",
          "type": "uint256"
        }
      ],
      "name": "usersInLevel",
      "outputs": [
        {
          "name": "",
          "type": "address[]"
        }
      ],
      "payable": false,
      "stateMutability": "view",
      "type": "function"
    },
    {
      "constant": true,
      "inputs": [],
      "name": "numberOfUsers",
      "outputs": [
        {
          "name": "",
          "type": "uint256"
        }
      ],
      "payable": false,
      "stateMutability": "view",
      "type": "function"
    },
    {
      "constant": true,
      "inputs": [],
      "name": "owner",
      "outputs": [
        {
          "name": "",
          "type": "address"
        }
      ],
      "payable": false,
      "stateMutability": "view",
      "type": "function"
    },
    {
      "constant": false,
      "inputs": [
        {
          "name": "answer",
          "type": "uint256"
        }
      ],
      "name": "levelTwo",
      "outputs": [
        {
          "name": "",
          "type": "bool"
        }
      ],
      "payable": true,
      "stateMutability": "payable",
      "type": "function"
    },
    {
      "constant": true,
      "inputs": [
        {
          "name": "index",
          "type": "uint256"
        }
      ],
      "name": "getAddressByIndex",
      "outputs": [
        {
          "name": "",
          "type": "address"
        }
      ],
      "payable": false,
      "stateMutability": "view",
      "type": "function"
    },
    {
      "constant": false,
      "inputs": [
        {
          "name": "answer",
          "type": "uint256"
        }
      ],
      "name": "levelFour",
      "outputs": [
        {
          "name": "",
          "type": "bool"
        }
      ],
      "payable": true,
      "stateMutability": "payable",
      "type": "function"
    },
    {
      "constant": true,
      "inputs": [],
      "name": "users",
      "outputs": [
        {
          "name": "name",
          "type": "string"
        },
        {
          "name": "level",
          "type": "uint256"
        }
      ],
      "payable": false,
      "stateMutability": "view",
      "type": "function"
    },
    {
      "constant": false,
      "inputs": [
        {
          "name": "newOwner",
          "type": "address"
        }
      ],
      "name": "transferOwnership",
      "outputs": [],
      "payable": false,
      "stateMutability": "nonpayable",
      "type": "function"
    },
    {
      "constant": false,
      "inputs": [
        {
          "name": "answer",
          "type": "uint256"
        }
      ],
      "name": "levelFive",
      "outputs": [
        {
          "name": "",
          "type": "bool"
        }
      ],
      "payable": true,
      "stateMutability": "payable",
      "type": "function"
    }
  ],
  "bytecode": "0x6060604052662386f26fc10000600755662386f26fc10000600855662386f26fc10000600955662386f26fc10000600a55662386f26fc10000600b55336000806101000a81548173ffffffffffffffffffffffffffffffffffffffff021916908373ffffffffffffffffffffffffffffffffffffffff160217905550610d8f8061008a6000396000f3006060604052600436106100db576000357c0100000000000000000000000000000000000000000000000000000000900463ffffffff1680630c024234146100e05780630d7b081c14610117578063146cb2591461017a57806337c40f4e146101aa578063507ffba5146101da578063691a037a14610237578063727ff93b1461028457806375ce46a7146102fc5780638da5cb5b14610325578063928074fd1461037a578063ce10cf88146103aa578063d94e2ad51461040d578063f20202751461043d578063f2fde38b146104ef578063fd5da00114610528575b600080fd5b34156100eb57600080fd5b6101016004808035906020019091905050610558565b6040518082815260200191505060405180910390f35b341561012257600080fd5b6101386004808035906020019091905050610575565b604051808273ffffffffffffffffffffffffffffffffffffffff1673ffffffffffffffffffffffffffffffffffffffff16815260200191505060405180910390f35b61019060048080359060200190919050506105a8565b604051808215151515815260200191505060405180910390f35b6101c060048080359060200190919050506105ff565b604051808215151515815260200191505060405180910390f35b34156101e557600080fd5b610235600480803590602001908201803590602001908080601f01602080910402602001604051908101604052809392919081815260200183838082843782019150505050505091905050610656565b005b341561024257600080fd5b61026e600480803573ffffffffffffffffffffffffffffffffffffffff1690602001909190505061078c565b6040518082815260200191505060405180910390f35b341561028f57600080fd5b6102a560048080359060200190919050506107d8565b6040518080602001828103825283818151815260200191508051906020019060200280838360005b838110156102e85780820151818401526020810190506102cd565b505050509050019250505060405180910390f35b341561030757600080fd5b61030f61095f565b6040518082815260200191505060405180910390f35b341561033057600080fd5b61033861096c565b604051808273ffffffffffffffffffffffffffffffffffffffff1673ffffffffffffffffffffffffffffffffffffffff16815260200191505060405180910390f35b6103906004808035906020019091905050610991565b604051808215151515815260200191505060405180910390f35b34156103b557600080fd5b6103cb60048080359060200190919050506109e8565b604051808273ffffffffffffffffffffffffffffffffffffffff1673ffffffffffffffffffffffffffffffffffffffff16815260200191505060405180910390f35b6104236004808035906020019091905050610a2c565b604051808215151515815260200191505060405180910390f35b341561044857600080fd5b610450610a83565b60405180806020018381526020018281038252848181546001816001161561010002031660029004815260200191508054600181600116156101000203166002900480156104df5780601f106104b4576101008083540402835291602001916104df565b820191906000526020600020905b8154815290600101906020018083116104c257829003601f168201915b5050935050505060405180910390f35b34156104fa57600080fd5b610526600480803573ffffffffffffffffffffffffffffffffffffffff16906020019091905050610a94565b005b61053e6004808035906020019091905050610b6e565b604051808215151515815260200191505060405180910390f35b600060066000838152602001908152602001600020549050919050565b60046020528060005260406000206000915054906101000a900473ffffffffffffffffffffffffffffffffffffffff1681565b6000806105b43361078c565b9050600954341415156105c657600080fd5b6003811480156105d65750600383145b156105f4576105e3610bc5565b6105eb610bf9565b600191506105f9565b600091505b50919050565b60008061060b3361078c565b90506007543414151561061d57600080fd5b60018114801561062d5750600183145b1561064b5761063a610bc5565b610642610bf9565b60019150610650565b600091505b50919050565b60006005805480600101828161066c9190610c7e565b9160005260206000209001600033909190916101000a81548173ffffffffffffffffffffffffffffffffffffffff021916908373ffffffffffffffffffffffffffffffffffffffff1602179055505081600360003373ffffffffffffffffffffffffffffffffffffffff1673ffffffffffffffffffffffffffffffffffffffff1681526020019081526020016000206000019080519060200190610711929190610caa565b506001600360003373ffffffffffffffffffffffffffffffffffffffff1673ffffffffffffffffffffffffffffffffffffffff168152602001908152602001600020600101819055506107633361078c565b905060066000828152602001908152602001600020600081548092919060010191905055505050565b6000600360008373ffffffffffffffffffffffffffffffffffffffff1673ffffffffffffffffffffffffffffffffffffffff168152602001908152602001600020600101549050919050565b6107e0610d2a565b6107e8610d2a565b600080600660008681526020019081526020016000205460405180591061080c5750595b9080825280602002602001820160405250925060009150600090505b60058054905081101561095457846003600060058481548110151561084957fe5b906000526020600020900160009054906101000a900473ffffffffffffffffffffffffffffffffffffffff1673ffffffffffffffffffffffffffffffffffffffff1673ffffffffffffffffffffffffffffffffffffffff168152602001908152602001600020600101541415610947576005818154811015156108c857fe5b906000526020600020900160009054906101000a900473ffffffffffffffffffffffffffffffffffffffff16838381518110151561090257fe5b9060200190602002019073ffffffffffffffffffffffffffffffffffffffff16908173ffffffffffffffffffffffffffffffffffffffff168152505081806001019250505b8080600101915050610828565b829350505050919050565b6000600580549050905090565b6000809054906101000a900473ffffffffffffffffffffffffffffffffffffffff1681565b60008061099d3361078c565b9050600854341415156109af57600080fd5b6002811480156109bf5750600283145b156109dd576109cc610bc5565b6109d4610bf9565b600191506109e2565b600091505b50919050565b60006005828154811015156109f957fe5b906000526020600020900160009054906101000a900473ffffffffffffffffffffffffffffffffffffffff169050919050565b600080610a383361078c565b9050600a5434141515610a4a57600080fd5b600481148015610a5a5750600483145b15610a7857610a67610bc5565b610a6f610bf9565b60019150610a7d565b600091505b50919050565b600180600001908060010154905082565b6000809054906101000a900473ffffffffffffffffffffffffffffffffffffffff1673ffffffffffffffffffffffffffffffffffffffff163373ffffffffffffffffffffffffffffffffffffffff16141515610aef57600080fd5b600073ffffffffffffffffffffffffffffffffffffffff168173ffffffffffffffffffffffffffffffffffffffff1614151515610b2b57600080fd5b806000806101000a81548173ffffffffffffffffffffffffffffffffffffffff021916908373ffffffffffffffffffffffffffffffffffffffff16021790555050565b600080610b7a3361078c565b9050600b5434141515610b8c57600080fd5b600581148015610b9c5750600583145b15610bba57610ba9610bc5565b610bb1610bf9565b60019150610bbf565b600091505b50919050565b6000610bd03361078c565b905060066000828152602001908152602001600020600081548092919060019003919050555050565b6000600360003373ffffffffffffffffffffffffffffffffffffffff1673ffffffffffffffffffffffffffffffffffffffff16815260200190815260200160002060010160008154809291906001019190505550610c563361078c565b9050600660008281526020019081526020016000206000815480929190600101919050555050565b815481835581811511610ca557818360005260206000209182019101610ca49190610d3e565b5b505050565b828054600181600116156101000203166002900490600052602060002090601f016020900481019282601f10610ceb57805160ff1916838001178555610d19565b82800160010185558215610d19579182015b82811115610d18578251825591602001919060010190610cfd565b5b509050610d269190610d3e565b5090565b602060405190810160405280600081525090565b610d6091905b80821115610d5c576000816000905550600101610d44565b5090565b905600a165627a7a72305820c571ffb16d6c30b4829ae0e1cb507f15d6876d8b319f9e1c81ac3893606f32dd0029",
  "source": "pragma solidity ^0.4.17;\n\nimport \"./LevelFour.sol\";\n\ncontract LevelFive is LevelFour { \n\n\t// @dev This is the amount of ETH a user has to spend to make a guess\n    uint payToPlayFee = .01 ether;\n\n    // @dev If a user guesses correctly, the incrementLevel() is called and they advance to the next level \n\tfunction levelFive(uint answer) public payable returns (bool) {\n\t\t\t\n\t\t\tuint level = currentLevel(msg.sender);\t\t\n\n\t\t\trequire(msg.value == payToPlayFee);\n\n\t\t\tif (level == 5 && answer == 5) {\n\t\t\t\tremoveFromPriorLevel();\n\n\t\t\t\tincrementLevel();\n\n\t\t\t\treturn true;\n\t\t\t}\n\t\t\telse {\n\n            \treturn false;\n        \t}\n\t\t}\n\n}\n",
  "sourcePath": "/Users/kseniya/Documents/coding/blockchainCoding/blockchain-tutorial/contracts/LevelFive.sol",
  "compiler": {
    "name": "solc",
    "version": "0.4.19+commit.c4cbbb05.Emscripten.clang"
  },
  "schemaVersion": "2.0.0",
  "updatedAt": "2018-04-06T23:44:46.513Z"
}