{
  "contractName": "Puzzles",
  "abi": [
    {
      "constant": true,
      "inputs": [
        {
          "name": "",
          "type": "address"
        }
      ],
      "name": "userLevel",
      "outputs": [
        {
          "name": "",
          "type": "uint256"
        }
      ],
      "payable": false,
      "stateMutability": "view",
      "type": "function"
    },
    {
      "constant": true,
      "inputs": [
        {
          "name": "",
          "type": "uint256"
        }
      ],
      "name": "users",
      "outputs": [
        {
          "name": "level",
          "type": "uint256"
        }
      ],
      "payable": false,
      "stateMutability": "view",
      "type": "function"
    },
    {
      "constant": true,
      "inputs": [
        {
          "name": "userAddress",
          "type": "address"
        }
      ],
      "name": "findLevel",
      "outputs": [
        {
          "name": "",
          "type": "uint256"
        }
      ],
      "payable": false,
      "stateMutability": "view",
      "type": "function"
    },
    {
      "constant": false,
      "inputs": [],
      "name": "incrementLevel",
      "outputs": [],
      "payable": false,
      "stateMutability": "nonpayable",
      "type": "function"
    },
    {
      "constant": true,
      "inputs": [],
      "name": "owner",
      "outputs": [
        {
          "name": "",
          "type": "address"
        }
      ],
      "payable": false,
      "stateMutability": "view",
      "type": "function"
    },
    {
      "constant": false,
      "inputs": [],
      "name": "assignLevel",
      "outputs": [],
      "payable": false,
      "stateMutability": "nonpayable",
      "type": "function"
    },
    {
      "constant": false,
      "inputs": [
        {
          "name": "newOwner",
          "type": "address"
        }
      ],
      "name": "transferOwnership",
      "outputs": [],
      "payable": false,
      "stateMutability": "nonpayable",
      "type": "function"
    },
    {
      "constant": false,
      "inputs": [
        {
          "name": "answer",
          "type": "uint256"
        }
      ],
      "name": "levelOne",
      "outputs": [],
      "payable": true,
      "stateMutability": "payable",
      "type": "function"
    },
    {
      "constant": false,
      "inputs": [
        {
          "name": "answer",
          "type": "uint256"
        }
      ],
      "name": "levelTwo",
      "outputs": [],
      "payable": true,
      "stateMutability": "payable",
      "type": "function"
    },
    {
      "constant": false,
      "inputs": [
        {
          "name": "answer",
          "type": "uint256"
        }
      ],
      "name": "finalLevel",
      "outputs": [],
      "payable": true,
      "stateMutability": "payable",
      "type": "function"
    }
  ],
  "bytecode": "0x6060604052662386f26fc10000600455336000806101000a81548173ffffffffffffffffffffffffffffffffffffffff021916908373ffffffffffffffffffffffffffffffffffffffff16021790555061066b8061005e6000396000f3006060604052600436106100a4576000357c0100000000000000000000000000000000000000000000000000000000900463ffffffff168063280e31cc146100a9578063365b98b2146100f657806337c40f4e1461012d5780634bfefa0b146101455780635d34b4e0146101925780638da5cb5b146101a7578063928074fd146101fc5780639cea063914610214578063aa777c1c14610229578063f2fde38b14610241575b600080fd5b34156100b457600080fd5b6100e0600480803573ffffffffffffffffffffffffffffffffffffffff1690602001909190505061027a565b6040518082815260200191505060405180910390f35b341561010157600080fd5b6101176004808035906020019091905050610292565b6040518082815260200191505060405180910390f35b61014360048080359060200190919050506102bc565b005b341561015057600080fd5b61017c600480803573ffffffffffffffffffffffffffffffffffffffff169060200190919050506102fb565b6040518082815260200191505060405180910390f35b341561019d57600080fd5b6101a5610344565b005b34156101b257600080fd5b6101ba610395565b604051808273ffffffffffffffffffffffffffffffffffffffff1673ffffffffffffffffffffffffffffffffffffffff16815260200191505060405180910390f35b61021260048080359060200190919050506103ba565b005b341561021f57600080fd5b6102276103f9565b005b61023f6004808035906020019091905050610446565b005b341561024c57600080fd5b610278600480803573ffffffffffffffffffffffffffffffffffffffff1690602001909190505061048d565b005b60026020528060005260406000206000915090505481565b6001818154811015156102a157fe5b90600052602060002090016000915090508060000154905081565b60006102c7336102fb565b9050600454341415156102d957600080fd5b6001811480156102e95750600182145b156102f7576102f6610344565b5b5050565b6000600260008373ffffffffffffffffffffffffffffffffffffffff1673ffffffffffffffffffffffffffffffffffffffff168152602001908152602001600020549050919050565b600260003373ffffffffffffffffffffffffffffffffffffffff1673ffffffffffffffffffffffffffffffffffffffff16815260200190815260200160002060008154809291906001019190505550565b6000809054906101000a900473ffffffffffffffffffffffffffffffffffffffff1681565b60006103c5336102fb565b9050600454341415156103d757600080fd5b6002811480156103e75750600282145b156103f5576103f4610344565b5b5050565b60006001905080600260003373ffffffffffffffffffffffffffffffffffffffff1673ffffffffffffffffffffffffffffffffffffffff1681526020019081526020016000208190555050565b6000610451336102fb565b90506004543414151561046357600080fd5b600a811480156104735750600582145b1561048957610480610567565b610488610344565b5b5050565b6000809054906101000a900473ffffffffffffffffffffffffffffffffffffffff1673ffffffffffffffffffffffffffffffffffffffff163373ffffffffffffffffffffffffffffffffffffffff161415156104e857600080fd5b600073ffffffffffffffffffffffffffffffffffffffff168173ffffffffffffffffffffffffffffffffffffffff161415151561052457600080fd5b806000806101000a81548173ffffffffffffffffffffffffffffffffffffffff021916908373ffffffffffffffffffffffffffffffffffffffff16021790555050565b60003073ffffffffffffffffffffffffffffffffffffffff163190506000809054906101000a900473ffffffffffffffffffffffffffffffffffffffff1673ffffffffffffffffffffffffffffffffffffffff166108fc6002838115156105ca57fe5b049081150290604051600060405180830381858888f1935050505015156105f057600080fd5b3373ffffffffffffffffffffffffffffffffffffffff166108fc60028381151561061657fe5b049081150290604051600060405180830381858888f19350505050151561063c57600080fd5b505600a165627a7a723058207d0abb931c8eddc5f2dc609534ab5f4e4e6dec42958879165600f4b347e1f1010029",
  "source": "pragma solidity ^0.4.17;\n\nimport \"./UserFactory.sol\";\n\ncontract Puzzles is UserFactory { \n\n      // amount a user has to pay to make a guess\n      uint payToPlayFee = .01 ether;\n\n//    mapping(address => uint) public userAnswer;   \n\n//    UserFactory user = UserFactory(UserFactoryAddress);\n\n    function payWinner() internal {\n        uint balance = this.balance;\n        owner.transfer(balance / 2);\n        msg.sender.transfer(balance / 2);\n    }\n\n    function levelOne(uint answer) public payable {\n\t\t//\tuserAnswer[msg.sender] = answer;\n\n\t\t\tuint currentLevel = findLevel(msg.sender); \n\n\t\t\trequire(msg.value == payToPlayFee);\n\n\t\t\tif (currentLevel == 1 && answer == 1) {\n\t\t\t\tincrementLevel();\n\t\t\t}\n    }\n\n\tfunction levelTwo(uint answer) public payable {\n\t\t//\tuserAnswer[msg.sender] = answer;\t\n\t\t\t\n\t\t\tuint currentLevel = findLevel(msg.sender);\t\t\n\n\t\t\trequire(msg.value == payToPlayFee);\n\n\t\t\tif (currentLevel ==2 && answer == 2) {\n\t\t\t\tincrementLevel();\n\t\t\t}\n\t\t}\n\n\tfunction finalLevel(uint answer) public payable {\n\t//\tuserAnswer[msg.sender] = answer;\n\n\t\tuint currentLevel = findLevel(msg.sender);\n\t\n\t\trequire(msg.value == payToPlayFee);\n\n\t\tif (currentLevel == 10 && answer == 5) {\n\t\t\tpayWinner();\n\t\t\tincrementLevel();\n\t\t}\n    }\n}\n",
  "sourcePath": "/home/ubuntu/blockchain-tutorial/contracts/Puzzles.sol",
  "compiler": {
    "name": "solc",
    "version": "0.4.19+commit.c4cbbb05.Emscripten.clang"
  },
  "schemaVersion": "2.0.0",
  "updatedAt": "2018-03-25T18:23:36.870Z"
}