{
  "contractName": "Puzzles",
  "abi": [
    {
      "constant": true,
      "inputs": [
        {
          "name": "",
          "type": "address"
        }
      ],
      "name": "userLevel",
      "outputs": [
        {
          "name": "",
          "type": "uint256"
        }
      ],
      "payable": false,
      "stateMutability": "view",
      "type": "function"
    },
    {
      "constant": true,
      "inputs": [
        {
          "name": "",
          "type": "uint256"
        }
      ],
      "name": "users",
      "outputs": [
        {
          "name": "level",
          "type": "uint256"
        }
      ],
      "payable": false,
      "stateMutability": "view",
      "type": "function"
    },
    {
      "constant": true,
      "inputs": [
        {
          "name": "userAddress",
          "type": "address"
        }
      ],
      "name": "currentLevel",
      "outputs": [
        {
          "name": "",
          "type": "uint256"
        }
      ],
      "payable": false,
      "stateMutability": "view",
      "type": "function"
    },
    {
      "constant": true,
      "inputs": [],
      "name": "owner",
      "outputs": [
        {
          "name": "",
          "type": "address"
        }
      ],
      "payable": false,
      "stateMutability": "view",
      "type": "function"
    },
    {
      "constant": false,
      "inputs": [
        {
          "name": "newOwner",
          "type": "address"
        }
      ],
      "name": "transferOwnership",
      "outputs": [],
      "payable": false,
      "stateMutability": "nonpayable",
      "type": "function"
    },
    {
      "anonymous": false,
      "inputs": [
        {
          "indexed": true,
          "name": "from",
          "type": "address"
        }
      ],
      "name": "IncrementUserLevel",
      "type": "event"
    },
    {
      "constant": false,
      "inputs": [
        {
          "name": "answer",
          "type": "uint256"
        }
      ],
      "name": "levelOne",
      "outputs": [
        {
          "name": "",
          "type": "bool"
        }
      ],
      "payable": true,
      "stateMutability": "payable",
      "type": "function"
    },
    {
      "constant": false,
      "inputs": [
        {
          "name": "answer",
          "type": "uint256"
        }
      ],
      "name": "levelTwo",
      "outputs": [
        {
          "name": "",
          "type": "bool"
        }
      ],
      "payable": true,
      "stateMutability": "payable",
      "type": "function"
    },
    {
      "constant": false,
      "inputs": [
        {
          "name": "answer",
          "type": "uint256"
        }
      ],
      "name": "levelSix",
      "outputs": [
        {
          "name": "",
          "type": "bool"
        }
      ],
      "payable": true,
      "stateMutability": "payable",
      "type": "function"
    }
  ],
  "bytecode": "0x6060604052662386f26fc10000600455336000806101000a81548173ffffffffffffffffffffffffffffffffffffffff021916908373ffffffffffffffffffffffffffffffffffffffff1602179055506107048061005e6000396000f30060606040526004361061008e576000357c0100000000000000000000000000000000000000000000000000000000900463ffffffff168063280e31cc14610093578063365b98b2146100e057806337c40f4e14610117578063691a037a1461014757806376cf1669146101945780638da5cb5b146101c4578063928074fd14610219578063f2fde38b14610249575b600080fd5b341561009e57600080fd5b6100ca600480803573ffffffffffffffffffffffffffffffffffffffff16906020019091905050610282565b6040518082815260200191505060405180910390f35b34156100eb57600080fd5b610101600480803590602001909190505061029a565b6040518082815260200191505060405180910390f35b61012d60048080359060200190919050506102c4565b604051808215151515815260200191505060405180910390f35b341561015257600080fd5b61017e600480803573ffffffffffffffffffffffffffffffffffffffff16906020019091905050610313565b6040518082815260200191505060405180910390f35b6101aa600480803590602001909190505061035c565b604051808215151515815260200191505060405180910390f35b34156101cf57600080fd5b6101d76103b4565b604051808273ffffffffffffffffffffffffffffffffffffffff1673ffffffffffffffffffffffffffffffffffffffff16815260200191505060405180910390f35b61022f60048080359060200190919050506103d9565b604051808215151515815260200191505060405180910390f35b341561025457600080fd5b610280600480803573ffffffffffffffffffffffffffffffffffffffff16906020019091905050610428565b005b60026020528060005260406000206000915090505481565b6001818154811015156102a957fe5b90600052602060002090016000915090508060000154905081565b6000806102d033610313565b9050600454341415156102e257600080fd5b6000811480156102f25750600183145b15610308576102ff610502565b6001915061030d565b600091505b50919050565b6000600260008373ffffffffffffffffffffffffffffffffffffffff1673ffffffffffffffffffffffffffffffffffffffff168152602001908152602001600020549050919050565b60008061036833610313565b90506004543414151561037a57600080fd5b60068114801561038a5750600683145b156103a457610397610600565b61039f610502565b6103ad565b600091506103ae565b5b50919050565b6000809054906101000a900473ffffffffffffffffffffffffffffffffffffffff1681565b6000806103e533610313565b9050600454341415156103f757600080fd5b6002811480156104075750600283145b1561041d57610414610502565b60019150610422565b600091505b50919050565b6000809054906101000a900473ffffffffffffffffffffffffffffffffffffffff1673ffffffffffffffffffffffffffffffffffffffff163373ffffffffffffffffffffffffffffffffffffffff1614151561048357600080fd5b600073ffffffffffffffffffffffffffffffffffffffff168173ffffffffffffffffffffffffffffffffffffffff16141515156104bf57600080fd5b806000806101000a81548173ffffffffffffffffffffffffffffffffffffffff021916908373ffffffffffffffffffffffffffffffffffffffff16021790555050565b60003373ffffffffffffffffffffffffffffffffffffffff167fdf3ef0b951bc6b5aa1fff89f38fb5e66d167a26134567a55213eaf5d8ea8423860405160405180910390a261055033610313565b905060008114156105ad5760028060003373ffffffffffffffffffffffffffffffffffffffff1673ffffffffffffffffffffffffffffffffffffffff168152602001908152602001600020600082825401925050819055506105fd565b600260003373ffffffffffffffffffffffffffffffffffffffff1673ffffffffffffffffffffffffffffffffffffffff168152602001908152602001600020600081548092919060010191905055505b50565b60003073ffffffffffffffffffffffffffffffffffffffff163190506000809054906101000a900473ffffffffffffffffffffffffffffffffffffffff1673ffffffffffffffffffffffffffffffffffffffff166108fc60028381151561066357fe5b049081150290604051600060405180830381858888f19350505050151561068957600080fd5b3373ffffffffffffffffffffffffffffffffffffffff166108fc6002838115156106af57fe5b049081150290604051600060405180830381858888f1935050505015156106d557600080fd5b505600a165627a7a7230582008e497cdfad8dddd9b1027997b0afbb3b4b455efe83f0309c1ce4060d5764a4d0029",
  "source": "pragma solidity ^0.4.17;\n\nimport \"./UserFactory.sol\";\n\ncontract Puzzles is UserFactory { \n\n// \tamount a user has to pay to make a guess\n    uint payToPlayFee = .01 ether;\n\n    function payWinner() internal {\n\n        uint balance = this.balance;\n\n        owner.transfer(balance / 2);\n\n        msg.sender.transfer(balance / 2);\n    }\n\n    function levelOne(uint answer) public payable returns (bool) {\n\n\t\t\tuint level = currentLevel(msg.sender); \n\n\t\t\trequire(msg.value == payToPlayFee);\n\n\t\t\tif (level == 0 && answer == 1) {\n\n\t\t\t\t// Because users are initialized at level 0 we have to increment their level twice if they guess correctly\n\t\t\t\t// I'm sure there's a better way to do this, but it's working for now\n\t\t\t\tincrementLevel();\n\n\t\t\t\treturn true;\n\t\t\t}\n\t\t\telse {\n\n            \treturn false;\n        \t}\n    }\n\n\tfunction levelTwo(uint answer) public payable returns (bool) {\n\t\t\t\n\t\t\tuint level = currentLevel(msg.sender);\t\t\n\n\t\t\trequire(msg.value == payToPlayFee);\n\n\t\t\tif (level == 2 && answer == 2) {\n\n\t\t\t\tincrementLevel();\n\n\t\t\t\treturn true;\n\t\t\t}\n\t\t\telse {\n\n            \treturn false;\n        \t}\n\t\t}\n\n\tfunction levelSix(uint answer) public payable returns (bool) {\n\n\t\tuint level = currentLevel(msg.sender);\n\t\n\t\trequire(msg.value == payToPlayFee);\n\n\t\tif (level == 6 && answer == 6) {\n\n\t\t\tpayWinner();\n\t\t\t\n\t\t\tincrementLevel();\n\t\t}\n\t\telse {\n\n            return false;\n        }\n    }\n}\n",
  "sourcePath": "/Users/Doug/Desktop/blockchain-game/blockchain-tutorial/contracts/Puzzles.sol",
  "compiler": {
    "name": "solc",
    "version": "0.4.19+commit.c4cbbb05.Emscripten.clang"
  },
  "schemaVersion": "2.0.0",
  "updatedAt": "2018-03-30T18:01:46.436Z"
}