{
  "contractName": "Puzzles",
  "abi": [
    {
      "constant": false,
      "inputs": [
        {
          "name": "answer",
          "type": "uint256"
        }
      ],
      "name": "levelOne",
      "outputs": [
        {
          "name": "success",
          "type": "bool"
        }
      ],
      "payable": false,
      "stateMutability": "nonpayable",
      "type": "function"
    }
  ],
  "bytecode": "0x6060604052732625a063ed7c07153ddc020b338dc4b5bed7a37d6000806101000a81548173ffffffffffffffffffffffffffffffffffffffff021916908373ffffffffffffffffffffffffffffffffffffffff1602179055506000809054906101000a900473ffffffffffffffffffffffffffffffffffffffff16600160006101000a81548173ffffffffffffffffffffffffffffffffffffffff021916908373ffffffffffffffffffffffffffffffffffffffff16021790555034156100c557600080fd5b61015b806100d46000396000f300606060405260043610610041576000357c0100000000000000000000000000000000000000000000000000000000900463ffffffff16806337c40f4e14610046575b600080fd5b341561005157600080fd5b6100676004808035906020019091905050610081565b604051808215151515815260200191505060405180910390f35b6000600182141561012657600160009054906101000a900473ffffffffffffffffffffffffffffffffffffffff1673ffffffffffffffffffffffffffffffffffffffff16635d34b4e06040518163ffffffff167c0100000000000000000000000000000000000000000000000000000000028152600401600060405180830381600087803b151561011157600080fd5b6102c65a03f1151561012257600080fd5b5050505b600190509190505600a165627a7a72305820d8efc203e7da22431eddd25d99fced805b63d5f6d768235de014ad8e67b1f8560029",
  "source": "pragma solidity ^0.4.17;\n\nimport \"./UserFactory.sol\";\n\ncontract Puzzles { \n    address UserFactoryAddress = 0x2625a063ed7c07153ddc020b338dc4b5bed7a37d;   \n\n    UserFactory user = UserFactory(UserFactoryAddress);\n\n    function levelOne(uint answer) public returns (bool success) {\n\t\n\tif(answer == 1)\n\t    user.incrementLevel();\n\t    return true;\t\n    }\n\n}\n",
  "sourcePath": "/home/ubuntu/blockchain-tutorial/contracts/Puzzles.sol",
  "compiler": {
    "name": "solc",
    "version": "0.4.19+commit.c4cbbb05.Emscripten.clang"
  },
  "schemaVersion": "2.0.0",
  "updatedAt": "2018-03-10T23:08:25.084Z"
}