{
  "contractName": "Puzzles",
  "abi": [
    {
      "constant": true,
      "inputs": [
        {
          "name": "",
          "type": "address"
        }
      ],
      "name": "userLevel",
      "outputs": [
        {
          "name": "",
          "type": "uint256"
        }
      ],
      "payable": false,
      "stateMutability": "view",
      "type": "function"
    },
    {
      "constant": true,
      "inputs": [
        {
          "name": "",
          "type": "uint256"
        }
      ],
      "name": "users",
      "outputs": [
        {
          "name": "level",
          "type": "uint256"
        }
      ],
      "payable": false,
      "stateMutability": "view",
      "type": "function"
    },
    {
      "constant": true,
      "inputs": [
        {
          "name": "userAddress",
          "type": "address"
        }
      ],
      "name": "currentLevel",
      "outputs": [
        {
          "name": "",
          "type": "uint256"
        }
      ],
      "payable": false,
      "stateMutability": "view",
      "type": "function"
    },
    {
      "constant": true,
      "inputs": [],
      "name": "owner",
      "outputs": [
        {
          "name": "",
          "type": "address"
        }
      ],
      "payable": false,
      "stateMutability": "view",
      "type": "function"
    },
    {
      "constant": false,
      "inputs": [],
      "name": "assignLevel",
      "outputs": [],
      "payable": false,
      "stateMutability": "nonpayable",
      "type": "function"
    },
    {
      "constant": false,
      "inputs": [
        {
          "name": "newOwner",
          "type": "address"
        }
      ],
      "name": "transferOwnership",
      "outputs": [],
      "payable": false,
      "stateMutability": "nonpayable",
      "type": "function"
    },
    {
      "anonymous": false,
      "inputs": [
        {
          "indexed": true,
          "name": "from",
          "type": "address"
        }
      ],
      "name": "IncrementUserLevel",
      "type": "event"
    },
    {
      "constant": false,
      "inputs": [
        {
          "name": "answer",
          "type": "uint256"
        }
      ],
      "name": "levelOne",
      "outputs": [
        {
          "name": "",
          "type": "bool"
        }
      ],
      "payable": true,
      "stateMutability": "payable",
      "type": "function"
    },
    {
      "constant": false,
      "inputs": [
        {
          "name": "answer",
          "type": "uint256"
        }
      ],
      "name": "levelTwo",
      "outputs": [
        {
          "name": "",
          "type": "bool"
        }
      ],
      "payable": true,
      "stateMutability": "payable",
      "type": "function"
    },
    {
      "constant": false,
      "inputs": [
        {
          "name": "answer",
          "type": "uint256"
        }
      ],
      "name": "levelSix",
      "outputs": [
        {
          "name": "",
          "type": "bool"
        }
      ],
      "payable": true,
      "stateMutability": "payable",
      "type": "function"
    }
  ],
  "bytecode": "0x6060604052662386f26fc10000600455336000806101000a81548173ffffffffffffffffffffffffffffffffffffffff021916908373ffffffffffffffffffffffffffffffffffffffff1602179055506107358061005e6000396000f300606060405260043610610099576000357c0100000000000000000000000000000000000000000000000000000000900463ffffffff168063280e31cc1461009e578063365b98b2146100eb57806337c40f4e14610122578063691a037a1461015257806376cf16691461019f5780638da5cb5b146101cf578063928074fd146102245780639cea063914610254578063f2fde38b14610269575b600080fd5b34156100a957600080fd5b6100d5600480803573ffffffffffffffffffffffffffffffffffffffff169060200190919050506102a2565b6040518082815260200191505060405180910390f35b34156100f657600080fd5b61010c60048080359060200190919050506102ba565b6040518082815260200191505060405180910390f35b61013860048080359060200190919050506102e4565b604051808215151515815260200191505060405180910390f35b341561015d57600080fd5b610189600480803573ffffffffffffffffffffffffffffffffffffffff16906020019091905050610361565b6040518082815260200191505060405180910390f35b6101b560048080359060200190919050506103aa565b604051808215151515815260200191505060405180910390f35b34156101da57600080fd5b6101e2610402565b604051808273ffffffffffffffffffffffffffffffffffffffff1673ffffffffffffffffffffffffffffffffffffffff16815260200191505060405180910390f35b61023a6004808035906020019091905050610427565b604051808215151515815260200191505060405180910390f35b341561025f57600080fd5b610267610476565b005b341561027457600080fd5b6102a0600480803573ffffffffffffffffffffffffffffffffffffffff169060200190919050506104c3565b005b60026020528060005260406000206000915090505481565b6001818154811015156102c957fe5b90600052602060002090016000915090508060000154905081565b6000806102f033610361565b90506004543414151561030257600080fd5b6000811480156103125750600183145b156103305761031f61059d565b61032761059d565b6001915061035b565b6001811480156103405750600183145b156103565761034d61059d565b6001915061035b565b600091505b50919050565b6000600260008373ffffffffffffffffffffffffffffffffffffffff1673ffffffffffffffffffffffffffffffffffffffff168152602001908152602001600020549050919050565b6000806103b633610361565b9050600454341415156103c857600080fd5b6006811480156103d85750600683145b156103f2576103e5610631565b6103ed61059d565b6103fb565b600091506103fc565b5b50919050565b6000809054906101000a900473ffffffffffffffffffffffffffffffffffffffff1681565b60008061043333610361565b90506004543414151561044557600080fd5b6002811480156104555750600283145b1561046b5761046261059d565b60019150610470565b600091505b50919050565b60006001905080600260003373ffffffffffffffffffffffffffffffffffffffff1673ffffffffffffffffffffffffffffffffffffffff1681526020019081526020016000208190555050565b6000809054906101000a900473ffffffffffffffffffffffffffffffffffffffff1673ffffffffffffffffffffffffffffffffffffffff163373ffffffffffffffffffffffffffffffffffffffff1614151561051e57600080fd5b600073ffffffffffffffffffffffffffffffffffffffff168173ffffffffffffffffffffffffffffffffffffffff161415151561055a57600080fd5b806000806101000a81548173ffffffffffffffffffffffffffffffffffffffff021916908373ffffffffffffffffffffffffffffffffffffffff16021790555050565b3373ffffffffffffffffffffffffffffffffffffffff167fdf3ef0b951bc6b5aa1fff89f38fb5e66d167a26134567a55213eaf5d8ea8423860405160405180910390a2600260003373ffffffffffffffffffffffffffffffffffffffff1673ffffffffffffffffffffffffffffffffffffffff16815260200190815260200160002060008154809291906001019190505550565b60003073ffffffffffffffffffffffffffffffffffffffff163190506000809054906101000a900473ffffffffffffffffffffffffffffffffffffffff1673ffffffffffffffffffffffffffffffffffffffff166108fc60028381151561069457fe5b049081150290604051600060405180830381858888f1935050505015156106ba57600080fd5b3373ffffffffffffffffffffffffffffffffffffffff166108fc6002838115156106e057fe5b049081150290604051600060405180830381858888f19350505050151561070657600080fd5b505600a165627a7a72305820c40aefdac00fc4d729e9dfbee329d7420e5cd70f21d6b09c45f83cbd645c42e70029",
  "source": "pragma solidity ^0.4.17;\n\nimport \"./UserFactory.sol\";\n\ncontract Puzzles is UserFactory { \n\n// \tamount a user has to pay to make a guess\n    uint payToPlayFee = .01 ether;\n\n    function payWinner() internal {\n\n        uint balance = this.balance;\n\n        owner.transfer(balance / 2);\n\n        msg.sender.transfer(balance / 2);\n    }\n\n    function levelOne(uint answer) public payable returns (bool) {\n\n\t\t\tuint level = currentLevel(msg.sender); \n\n\t\t\trequire(msg.value == payToPlayFee);\n\n\t\t\tif (level == 0 && answer == 1) {\n\n\t\t\t\tincrementLevel();\n\n\t\t\t\tincrementLevel();\n\n\t\t\t\treturn true;\n\t\t\t}\n\n\t\t\tif (level == 1 && answer == 1) {\n\n\t\t\t\tincrementLevel();\n\n\t\t\t\treturn true;\n\t\t\t}\n\t\t\telse {\n\n            \treturn false;\n        \t}\n    }\n\n\tfunction levelTwo(uint answer) public payable returns (bool) {\n\t\t\t\n\t\t\tuint level = currentLevel(msg.sender);\t\t\n\n\t\t\trequire(msg.value == payToPlayFee);\n\n\t\t\tif (level == 2 && answer == 2) {\n\n\t\t\t\tincrementLevel();\n\n\t\t\t\treturn true;\n\t\t\t}\n\t\t\telse {\n\n            \treturn false;\n        \t}\n\t\t}\n\n\tfunction levelSix(uint answer) public payable returns (bool) {\n\n\t\tuint level = currentLevel(msg.sender);\n\t\n\t\trequire(msg.value == payToPlayFee);\n\n\t\tif (level == 6 && answer == 6) {\n\n\t\t\tpayWinner();\n\t\t\t\n\t\t\tincrementLevel();\n\t\t}\n\t\telse {\n\n            return false;\n        }\n    }\n}\n",
  "sourcePath": "/Users/Doug/Desktop/blockchain-game/blockchain-tutorial/contracts/Puzzles.sol",
  "compiler": {
    "name": "solc",
    "version": "0.4.19+commit.c4cbbb05.Emscripten.clang"
  },
  "schemaVersion": "2.0.0",
  "updatedAt": "2018-03-30T17:36:02.776Z"
}