{
  "contractName": "Puzzles",
  "abi": [
    {
      "constant": true,
      "inputs": [],
      "name": "cfoAddress",
      "outputs": [
        {
          "name": "",
          "type": "address"
        }
      ],
      "payable": false,
      "stateMutability": "view",
      "type": "function"
    },
    {
      "constant": true,
      "inputs": [
        {
          "name": "",
          "type": "address"
        }
      ],
      "name": "userLevel",
      "outputs": [
        {
          "name": "",
          "type": "uint256"
        }
      ],
      "payable": false,
      "stateMutability": "view",
      "type": "function"
    },
    {
      "constant": true,
      "inputs": [
        {
          "name": "",
          "type": "uint256"
        }
      ],
      "name": "users",
      "outputs": [
        {
          "name": "level",
          "type": "uint256"
        }
      ],
      "payable": false,
      "stateMutability": "view",
      "type": "function"
    },
    {
      "constant": true,
      "inputs": [
        {
          "name": "userAddress",
          "type": "address"
        }
      ],
      "name": "findLevel",
      "outputs": [
        {
          "name": "",
          "type": "uint256"
        }
      ],
      "payable": false,
      "stateMutability": "view",
      "type": "function"
    },
    {
      "constant": false,
      "inputs": [
        {
          "name": "_newCFO",
          "type": "address"
        }
      ],
      "name": "setCFO",
      "outputs": [],
      "payable": false,
      "stateMutability": "nonpayable",
      "type": "function"
    },
    {
      "constant": false,
      "inputs": [],
      "name": "incrementLevel",
      "outputs": [],
      "payable": false,
      "stateMutability": "nonpayable",
      "type": "function"
    },
    {
      "constant": false,
      "inputs": [],
      "name": "assignLevel",
      "outputs": [],
      "payable": false,
      "stateMutability": "nonpayable",
      "type": "function"
    },
    {
      "constant": false,
      "inputs": [
        {
          "name": "answer",
          "type": "uint256"
        }
      ],
      "name": "levelOne",
      "outputs": [],
      "payable": false,
      "stateMutability": "nonpayable",
      "type": "function"
    },
    {
      "constant": false,
      "inputs": [
        {
          "name": "answer",
          "type": "uint256"
        }
      ],
      "name": "levelTwo",
      "outputs": [],
      "payable": false,
      "stateMutability": "nonpayable",
      "type": "function"
    }
  ],
  "bytecode": "0x6060604052341561000f57600080fd5b6104e88061001e6000396000f300606060405260043610610099576000357c0100000000000000000000000000000000000000000000000000000000900463ffffffff1680630519ce791461009e578063280e31cc146100f3578063365b98b21461014057806337c40f4e146101775780634bfefa0b1461019a5780634e0a3379146101e75780635d34b4e014610220578063928074fd146102355780639cea063914610258575b600080fd5b34156100a957600080fd5b6100b161026d565b604051808273ffffffffffffffffffffffffffffffffffffffff1673ffffffffffffffffffffffffffffffffffffffff16815260200191505060405180910390f35b34156100fe57600080fd5b61012a600480803573ffffffffffffffffffffffffffffffffffffffff16906020019091905050610292565b6040518082815260200191505060405180910390f35b341561014b57600080fd5b61016160048080359060200190919050506102aa565b6040518082815260200191505060405180910390f35b341561018257600080fd5b61019860048080359060200190919050506102d4565b005b34156101a557600080fd5b6101d1600480803573ffffffffffffffffffffffffffffffffffffffff169060200190919050506102e9565b6040518082815260200191505060405180910390f35b34156101f257600080fd5b61021e600480803573ffffffffffffffffffffffffffffffffffffffff16906020019091905050610332565b005b341561022b57600080fd5b6102336103b1565b005b341561024057600080fd5b610256600480803590602001909190505061045a565b005b341561026357600080fd5b61026b61046f565b005b6000809054906101000a900473ffffffffffffffffffffffffffffffffffffffff1681565b60026020528060005260406000206000915090505481565b6001818154811015156102b957fe5b90600052602060002090016000915090508060000154905081565b60018114156102e6576102e56103b1565b5b50565b6000600260008373ffffffffffffffffffffffffffffffffffffffff1673ffffffffffffffffffffffffffffffffffffffff168152602001908152602001600020549050919050565b600073ffffffffffffffffffffffffffffffffffffffff168173ffffffffffffffffffffffffffffffffffffffff161415151561036e57600080fd5b806000806101000a81548173ffffffffffffffffffffffffffffffffffffffff021916908373ffffffffffffffffffffffffffffffffffffffff16021790555050565b600260003373ffffffffffffffffffffffffffffffffffffffff1673ffffffffffffffffffffffffffffffffffffffff168152602001908152602001600020600081548092919060010191905055506000600360003373ffffffffffffffffffffffffffffffffffffffff1673ffffffffffffffffffffffffffffffffffffffff16815260200190815260200160002060006101000a81548160ff021916908315150217905550565b600281141561046c5761046b6103b1565b5b50565b60006001905080600260003373ffffffffffffffffffffffffffffffffffffffff1673ffffffffffffffffffffffffffffffffffffffff16815260200190815260200160002081905550505600a165627a7a723058202182a9a0382428857386980fc7c72530f8e0feb66b5674057b72fc72ddfde3ba0029",
  "source": "pragma solidity ^0.4.17;\n\nimport \"./userfactory.sol\";\n\ncontract Puzzles is UserFactory { \n\n//    mapping(address => uint) public userAnswer;   \n\n//    UserFactory user = UserFactory(UserFactoryAddress);\n\n    function levelOne(uint answer) public {\n//\tuserAnswer[msg.sender] = answer;\t\n\t\tif (answer == 1) {\n\t\t\tincrementLevel();\n\t\t\t\n\t\t\t// return true;\t\n\t\t}\n    }\n\n\t    function levelTwo(uint answer) public {\n//\tuserAnswer[msg.sender] = answer;\t\n\n\t\tif (answer == 2) {\n\t\t\tincrementLevel();\n\t\t\t// return true;\t\n\t\t}\n    }\n}\n",
  "sourcePath": "/Users/kseniya/Documents/coding/blockchainCoding/blockchain-tutorial/contracts/puzzles.sol",
  "compiler": {
    "name": "solc",
    "version": "0.4.19+commit.c4cbbb05.Emscripten.clang"
  },
  "schemaVersion": "2.0.0",
  "updatedAt": "2018-03-13T06:24:23.187Z"
}