{
  "contractName": "UserFactory",
  "abi": [
    {
      "constant": true,
      "inputs": [
        {
          "name": "",
          "type": "address"
        }
      ],
      "name": "userLevel",
      "outputs": [
        {
          "name": "",
          "type": "uint256"
        }
      ],
      "payable": false,
      "stateMutability": "view",
      "type": "function"
    },
    {
      "constant": true,
      "inputs": [
        {
          "name": "",
          "type": "uint256"
        }
      ],
      "name": "users",
      "outputs": [
        {
          "name": "level",
          "type": "uint256"
        }
      ],
      "payable": false,
      "stateMutability": "view",
      "type": "function"
    },
    {
      "constant": true,
      "inputs": [],
      "name": "owner",
      "outputs": [
        {
          "name": "",
          "type": "address"
        }
      ],
      "payable": false,
      "stateMutability": "view",
      "type": "function"
    },
    {
      "constant": false,
      "inputs": [
        {
          "name": "newOwner",
          "type": "address"
        }
      ],
      "name": "transferOwnership",
      "outputs": [],
      "payable": false,
      "stateMutability": "nonpayable",
      "type": "function"
    },
    {
      "anonymous": false,
      "inputs": [
        {
          "indexed": true,
          "name": "from",
          "type": "address"
        }
      ],
      "name": "IncrementUserLevel",
      "type": "event"
    },
    {
      "constant": false,
      "inputs": [],
      "name": "assignLevel",
      "outputs": [],
      "payable": false,
      "stateMutability": "nonpayable",
      "type": "function"
    },
    {
      "constant": true,
      "inputs": [
        {
          "name": "userAddress",
          "type": "address"
        }
      ],
      "name": "currentLevel",
      "outputs": [
        {
          "name": "",
          "type": "uint256"
        }
      ],
      "payable": false,
      "stateMutability": "view",
      "type": "function"
    }
  ],
  "bytecode": "0x6060604052336000806101000a81548173ffffffffffffffffffffffffffffffffffffffff021916908373ffffffffffffffffffffffffffffffffffffffff1602179055506103f4806100536000396000f300606060405260043610610078576000357c0100000000000000000000000000000000000000000000000000000000900463ffffffff168063280e31cc1461007d578063365b98b2146100ca578063691a037a146101015780638da5cb5b1461014e5780639cea0639146101a3578063f2fde38b146101b8575b600080fd5b341561008857600080fd5b6100b4600480803573ffffffffffffffffffffffffffffffffffffffff169060200190919050506101f1565b6040518082815260200191505060405180910390f35b34156100d557600080fd5b6100eb6004808035906020019091905050610209565b6040518082815260200191505060405180910390f35b341561010c57600080fd5b610138600480803573ffffffffffffffffffffffffffffffffffffffff16906020019091905050610233565b6040518082815260200191505060405180910390f35b341561015957600080fd5b61016161027c565b604051808273ffffffffffffffffffffffffffffffffffffffff1673ffffffffffffffffffffffffffffffffffffffff16815260200191505060405180910390f35b34156101ae57600080fd5b6101b66102a1565b005b34156101c357600080fd5b6101ef600480803573ffffffffffffffffffffffffffffffffffffffff169060200190919050506102ee565b005b60026020528060005260406000206000915090505481565b60018181548110151561021857fe5b90600052602060002090016000915090508060000154905081565b6000600260008373ffffffffffffffffffffffffffffffffffffffff1673ffffffffffffffffffffffffffffffffffffffff168152602001908152602001600020549050919050565b6000809054906101000a900473ffffffffffffffffffffffffffffffffffffffff1681565b60006001905080600260003373ffffffffffffffffffffffffffffffffffffffff1673ffffffffffffffffffffffffffffffffffffffff1681526020019081526020016000208190555050565b6000809054906101000a900473ffffffffffffffffffffffffffffffffffffffff1673ffffffffffffffffffffffffffffffffffffffff163373ffffffffffffffffffffffffffffffffffffffff1614151561034957600080fd5b600073ffffffffffffffffffffffffffffffffffffffff168173ffffffffffffffffffffffffffffffffffffffff161415151561038557600080fd5b806000806101000a81548173ffffffffffffffffffffffffffffffffffffffff021916908373ffffffffffffffffffffffffffffffffffffffff160217905550505600a165627a7a7230582024c6ecfd3adfe6f7b270441f3ac2f3d1230d78a8b21d4bec150875e5458509500029",
  "source": "pragma solidity ^0.4.17;\n\nimport \"./Ownable.sol\";\n\ncontract UserFactory is Ownable {  \n\n    struct User {\n\t    uint level;\n    }\n\n    event IncrementUserLevel(address indexed from);\n\n    // array containing the User struct for all Users\n    User[] public users;\n\n    // a mapping from owner address to their userLevel\n    mapping(address => uint) public userLevel; \n\n    // a mapping from levels to the users in them\n    mapping(uint => User[]) levelToUsers;\n\n    // Saving this in case we need it later\n    // uint id = users.push(User(level)) -1;\n\n    function assignLevel() public {\n        uint level = 1;\n        userLevel[msg.sender] = level;\n    }\n\n    function incrementLevel() internal {\n\t\n\t   IncrementUserLevel(msg.sender); \n\n        userLevel[msg.sender]++;\n\n    }\n\n    function currentLevel(address userAddress) public constant returns (uint) {\n\n\t    return userLevel[userAddress];\n\n    }\n\n}\n",
  "sourcePath": "/Users/Doug/Desktop/blockchain-game/blockchain-tutorial/contracts/UserFactory.sol",
  "compiler": {
    "name": "solc",
    "version": "0.4.19+commit.c4cbbb05.Emscripten.clang"
  },
  "schemaVersion": "2.0.0",
  "updatedAt": "2018-03-30T17:36:02.635Z"
}