{
  "contractName": "UserToken",
  "abi": [
    {
      "constant": true,
      "inputs": [
        {
          "name": "",
          "type": "uint256"
        }
      ],
      "name": "users",
      "outputs": [
        {
          "name": "name",
          "type": "string"
        },
        {
          "name": "level",
          "type": "uint256"
        },
        {
          "name": "oasisTokenBalance",
          "type": "uint256"
        }
      ],
      "payable": false,
      "stateMutability": "view",
      "type": "function"
    }
  ],
  "bytecode": "0x6060604052341561000f57600080fd5b6101718061001e6000396000f300606060405260043610610041576000357c0100000000000000000000000000000000000000000000000000000000900463ffffffff168063365b98b214610046575b600080fd5b341561005157600080fd5b610067600480803590602001909190505061010d565b60405180806020018481526020018381526020018281038252858181546001816001161561010002031660029004815260200191508054600181600116156101000203166002900480156100fc5780601f106100d1576101008083540402835291602001916100fc565b820191906000526020600020905b8154815290600101906020018083116100df57829003601f168201915b505094505050505060405180910390f35b60008181548110151561011c57fe5b9060005260206000209060030201600091509050806000019080600101549080600201549050835600a165627a7a72305820c69427edff034a090be43f5c866d39f0e7c8a7cf4dcf857fdc9451329d9f8a6d0029",
  "source": "pragma solidity ^0.4.17;\n\ncontract UserToken {\n\n    struct User {\n        string name; \n\tuint level; \n        uint oasisTokenBalance;    \n    } \n\n    User[] public users;\n\n    // mapping(address => User) public users;\n\n    function createUser(string _name, uint _level, uint _oasisTokenBalance) private {\n\tusers.push(User(_name, _level, _oasisTokenBalance));\n    }\n    \n}\n",
  "sourcePath": "/home/ubuntu/blockchain-tutorial/contracts/UserToken.sol",
  "compiler": {
    "name": "solc",
    "version": "0.4.19+commit.c4cbbb05.Emscripten.clang"
  },
  "schemaVersion": "2.0.0",
  "updatedAt": "2018-03-06T21:03:18.813Z"
}