{
  "contractName": "UserFactory",
  "abi": [
    {
      "constant": true,
      "inputs": [
        {
          "name": "",
          "type": "address"
        }
      ],
      "name": "userLevel",
      "outputs": [
        {
          "name": "",
          "type": "uint256"
        }
      ],
      "payable": false,
      "stateMutability": "view",
      "type": "function"
    },
    {
      "constant": true,
      "inputs": [
        {
          "name": "",
          "type": "uint256"
        }
      ],
      "name": "users",
      "outputs": [
        {
          "name": "level",
          "type": "uint256"
        }
      ],
      "payable": false,
      "stateMutability": "view",
      "type": "function"
    },
    {
      "constant": false,
      "inputs": [],
      "name": "assignLevel",
      "outputs": [],
      "payable": false,
      "stateMutability": "nonpayable",
      "type": "function"
    },
    {
      "constant": false,
      "inputs": [],
      "name": "incrementLevel",
      "outputs": [],
      "payable": false,
      "stateMutability": "nonpayable",
      "type": "function"
    },
    {
      "constant": true,
      "inputs": [
        {
          "name": "userAddress",
          "type": "address"
        }
      ],
      "name": "findLevel",
      "outputs": [
        {
          "name": "",
          "type": "uint256"
        }
      ],
      "payable": false,
      "stateMutability": "view",
      "type": "function"
    }
  ],
  "bytecode": "0x6060604052341561000f57600080fd5b61035e8061001e6000396000f30060606040526004361061006d576000357c0100000000000000000000000000000000000000000000000000000000900463ffffffff168063280e31cc14610072578063365b98b2146100bf5780634bfefa0b146100f65780635d34b4e0146101435780639cea063914610158575b600080fd5b341561007d57600080fd5b6100a9600480803573ffffffffffffffffffffffffffffffffffffffff1690602001909190505061016d565b6040518082815260200191505060405180910390f35b34156100ca57600080fd5b6100e06004808035906020019091905050610185565b6040518082815260200191505060405180910390f35b341561010157600080fd5b61012d600480803573ffffffffffffffffffffffffffffffffffffffff169060200190919050506101af565b6040518082815260200191505060405180910390f35b341561014e57600080fd5b6101566101f8565b005b341561016357600080fd5b61016b610249565b005b60016020528060005260406000206000915090505481565b60008181548110151561019457fe5b90600052602060002090016000915090508060000154905081565b6000600160008373ffffffffffffffffffffffffffffffffffffffff1673ffffffffffffffffffffffffffffffffffffffff168152602001908152602001600020549050919050565b600160003373ffffffffffffffffffffffffffffffffffffffff1673ffffffffffffffffffffffffffffffffffffffff16815260200190815260200160002060008154809291906001019190505550565b6000806001915081600160003373ffffffffffffffffffffffffffffffffffffffff1673ffffffffffffffffffffffffffffffffffffffff168152602001908152602001600020819055506001600080548060010182816102aa91906102df565b916000526020600020900160006020604051908101604052808781525090919091506000820151816000015550500390505050565b81548183558181151161030657818360005260206000209182019101610305919061030b565b5b505050565b61032f91905b8082111561032b5760008082016000905550600101610311565b5090565b905600a165627a7a723058208b01c0bc1378226954f8ec3dac5b7dcb93e59f5d395bed16b22514d8fccf13aa0029",
  "source": "pragma solidity ^0.4.17;\n\ncontract UserFactory {  \n\n    struct User{\n\tuint level;\n    }\n\n    User[] public users;\n\n    mapping(address => uint) public userLevel; \n\n    function assignLevel() public {\n\tuint level = 1;\n\tuserLevel[msg.sender] = level;\n        uint id = users.push(User(level)) -1;\n    }\n\n    function incrementLevel() public {\n\tuserLevel[msg.sender]++;\n    }\n\n    function findLevel(address userAddress) public constant returns (uint) {\n\treturn userLevel[userAddress];\n    }\n\n}\n",
  "sourcePath": "/home/ubuntu/blockchain-tutorial/contracts/UserFactory.sol",
  "compiler": {
    "name": "solc",
    "version": "0.4.19+commit.c4cbbb05.Emscripten.clang"
  },
  "schemaVersion": "2.0.0",
  "updatedAt": "2018-03-09T22:29:02.833Z"
}