{
  "contractName": "UserFactory",
  "abi": [
    {
      "constant": true,
      "inputs": [
        {
          "name": "",
          "type": "uint256"
        }
      ],
      "name": "userToOwner",
      "outputs": [
        {
          "name": "",
          "type": "address"
        }
      ],
      "payable": false,
      "stateMutability": "view",
      "type": "function"
    },
    {
      "constant": true,
      "inputs": [],
      "name": "owner",
      "outputs": [
        {
          "name": "",
          "type": "address"
        }
      ],
      "payable": false,
      "stateMutability": "view",
      "type": "function"
    },
    {
      "constant": true,
      "inputs": [],
      "name": "users",
      "outputs": [
        {
          "name": "name",
          "type": "string"
        },
        {
          "name": "level",
          "type": "uint256"
        }
      ],
      "payable": false,
      "stateMutability": "view",
      "type": "function"
    },
    {
      "constant": false,
      "inputs": [
        {
          "name": "newOwner",
          "type": "address"
        }
      ],
      "name": "transferOwnership",
      "outputs": [],
      "payable": false,
      "stateMutability": "nonpayable",
      "type": "function"
    },
    {
      "constant": false,
      "inputs": [
        {
          "name": "name",
          "type": "string"
        }
      ],
      "name": "createUser",
      "outputs": [],
      "payable": false,
      "stateMutability": "nonpayable",
      "type": "function"
    },
    {
      "constant": true,
      "inputs": [
        {
          "name": "userAddress",
          "type": "address"
        }
      ],
      "name": "currentLevel",
      "outputs": [
        {
          "name": "",
          "type": "uint256"
        }
      ],
      "payable": false,
      "stateMutability": "view",
      "type": "function"
    },
    {
      "constant": true,
      "inputs": [],
      "name": "numberOfUsers",
      "outputs": [
        {
          "name": "",
          "type": "uint256"
        }
      ],
      "payable": false,
      "stateMutability": "view",
      "type": "function"
    },
    {
      "constant": true,
      "inputs": [
        {
          "name": "level",
          "type": "uint256"
        }
      ],
      "name": "numberOfUsersPerLevel",
      "outputs": [
        {
          "name": "",
          "type": "uint256"
        }
      ],
      "payable": false,
      "stateMutability": "view",
      "type": "function"
    },
    {
      "constant": true,
      "inputs": [
        {
          "name": "index",
          "type": "uint256"
        }
      ],
      "name": "getAddressByIndex",
      "outputs": [
        {
          "name": "",
          "type": "address"
        }
      ],
      "payable": false,
      "stateMutability": "view",
      "type": "function"
    },
    {
      "constant": true,
      "inputs": [
        {
          "name": "_level",
          "type": "uint256"
        }
      ],
      "name": "usersInLevel",
      "outputs": [
        {
          "name": "",
          "type": "address[]"
        }
      ],
      "payable": false,
      "stateMutability": "view",
      "type": "function"
    }
  ],
  "bytecode": "0x6060604052336000806101000a81548173ffffffffffffffffffffffffffffffffffffffff021916908373ffffffffffffffffffffffffffffffffffffffff1602179055506109fc806100536000396000f3006060604052600436106100a4576000357c0100000000000000000000000000000000000000000000000000000000900463ffffffff1680630c024234146100a95780630d7b081c146100e0578063507ffba514610143578063691a037a146101a0578063727ff93b146101ed57806375ce46a7146102655780638da5cb5b1461028e578063ce10cf88146102e3578063f202027514610346578063f2fde38b146103f8575b600080fd5b34156100b457600080fd5b6100ca6004808035906020019091905050610431565b6040518082815260200191505060405180910390f35b34156100eb57600080fd5b610101600480803590602001909190505061044e565b604051808273ffffffffffffffffffffffffffffffffffffffff1673ffffffffffffffffffffffffffffffffffffffff16815260200191505060405180910390f35b341561014e57600080fd5b61019e600480803590602001908201803590602001908080601f01602080910402602001604051908101604052809392919081815260200183838082843782019150505050505091905050610481565b005b34156101ab57600080fd5b6101d7600480803573ffffffffffffffffffffffffffffffffffffffff169060200190919050506105b7565b6040518082815260200191505060405180910390f35b34156101f857600080fd5b61020e6004808035906020019091905050610603565b6040518080602001828103825283818151815260200191508051906020019060200280838360005b83811015610251578082015181840152602081019050610236565b505050509050019250505060405180910390f35b341561027057600080fd5b61027861078a565b6040518082815260200191505060405180910390f35b341561029957600080fd5b6102a1610797565b604051808273ffffffffffffffffffffffffffffffffffffffff1673ffffffffffffffffffffffffffffffffffffffff16815260200191505060405180910390f35b34156102ee57600080fd5b61030460048080359060200190919050506107bc565b604051808273ffffffffffffffffffffffffffffffffffffffff1673ffffffffffffffffffffffffffffffffffffffff16815260200191505060405180910390f35b341561035157600080fd5b610359610800565b60405180806020018381526020018281038252848181546001816001161561010002031660029004815260200191508054600181600116156101000203166002900480156103e85780601f106103bd576101008083540402835291602001916103e8565b820191906000526020600020905b8154815290600101906020018083116103cb57829003601f168201915b5050935050505060405180910390f35b341561040357600080fd5b61042f600480803573ffffffffffffffffffffffffffffffffffffffff16906020019091905050610811565b005b600060066000838152602001908152602001600020549050919050565b60046020528060005260406000206000915054906101000a900473ffffffffffffffffffffffffffffffffffffffff1681565b60006005805480600101828161049791906108eb565b9160005260206000209001600033909190916101000a81548173ffffffffffffffffffffffffffffffffffffffff021916908373ffffffffffffffffffffffffffffffffffffffff1602179055505081600360003373ffffffffffffffffffffffffffffffffffffffff1673ffffffffffffffffffffffffffffffffffffffff168152602001908152602001600020600001908051906020019061053c929190610917565b506001600360003373ffffffffffffffffffffffffffffffffffffffff1673ffffffffffffffffffffffffffffffffffffffff1681526020019081526020016000206001018190555061058e336105b7565b905060066000828152602001908152602001600020600081548092919060010191905055505050565b6000600360008373ffffffffffffffffffffffffffffffffffffffff1673ffffffffffffffffffffffffffffffffffffffff168152602001908152602001600020600101549050919050565b61060b610997565b610613610997565b60008060066000868152602001908152602001600020546040518059106106375750595b9080825280602002602001820160405250925060009150600090505b60058054905081101561077f57846003600060058481548110151561067457fe5b906000526020600020900160009054906101000a900473ffffffffffffffffffffffffffffffffffffffff1673ffffffffffffffffffffffffffffffffffffffff1673ffffffffffffffffffffffffffffffffffffffff168152602001908152602001600020600101541415610772576005818154811015156106f357fe5b906000526020600020900160009054906101000a900473ffffffffffffffffffffffffffffffffffffffff16838381518110151561072d57fe5b9060200190602002019073ffffffffffffffffffffffffffffffffffffffff16908173ffffffffffffffffffffffffffffffffffffffff168152505081806001019250505b8080600101915050610653565b829350505050919050565b6000600580549050905090565b6000809054906101000a900473ffffffffffffffffffffffffffffffffffffffff1681565b60006005828154811015156107cd57fe5b906000526020600020900160009054906101000a900473ffffffffffffffffffffffffffffffffffffffff169050919050565b600180600001908060010154905082565b6000809054906101000a900473ffffffffffffffffffffffffffffffffffffffff1673ffffffffffffffffffffffffffffffffffffffff163373ffffffffffffffffffffffffffffffffffffffff1614151561086c57600080fd5b600073ffffffffffffffffffffffffffffffffffffffff168173ffffffffffffffffffffffffffffffffffffffff16141515156108a857600080fd5b806000806101000a81548173ffffffffffffffffffffffffffffffffffffffff021916908373ffffffffffffffffffffffffffffffffffffffff16021790555050565b8154818355818115116109125781836000526020600020918201910161091191906109ab565b5b505050565b828054600181600116156101000203166002900490600052602060002090601f016020900481019282601f1061095857805160ff1916838001178555610986565b82800160010185558215610986579182015b8281111561098557825182559160200191906001019061096a565b5b50905061099391906109ab565b5090565b602060405190810160405280600081525090565b6109cd91905b808211156109c95760008160009055506001016109b1565b5090565b905600a165627a7a723058206e3f3c3764274774c7bf05269c569669b06729444194058b0f875561db5ab47e0029",
  "source": "pragma solidity ^0.4.17;\n\nimport \"./Ownable.sol\";\nimport \"./safemath.sol\";\n\ncontract UserFactory is Ownable {  \n\n    // @dev Definition of User struct and its grouped list of variables\n    using SafeMath for uint;\n\n    struct UserStruct {\n        string name;\n        uint level;\n    }\n\n    // event IncrementUserLevel(address indexed from);\n\n    // @dev An array containing the User struct for all Users\n    UserStruct public users;\n\n    // map an address to their UserStruct\n    mapping (address => UserStruct) userStructs;\n\n    // a mapping from userId to the owner address\n    mapping(uint => address) public userToOwner; \n\n    // a dynamic array of addresses\n    address[] userAddresses;\n\n    // a mapping from level to number of users\n    mapping(uint => uint) levelToNumberOfUsers;\n\n    function createUser(string name) public {\n\n        // push address into userAddresses array\n        userAddresses.push(msg.sender);\n\n        // set user name\n        userStructs[msg.sender].name = name;\n\n        // set user level to 1\n        userStructs[msg.sender].level = 1;\n\n        uint level = currentLevel(msg.sender); \n\n        // // push user into User array\n        // uint id = users.push(UserStruct(name, level)) - 1;\n\n        // // set id to user address\n        // userToOwner[id] = msg.sender;\n\n        levelToNumberOfUsers[level]++;\n    }\n\n    function incrementLevel() internal {\n\n        // incremenet users level\n        userStructs[msg.sender].level++;\n\n        uint level = currentLevel(msg.sender); \n        levelToNumberOfUsers[level]++;\n\n    }\n\n    function removeFromPriorLevel() internal {\n        uint level = currentLevel(msg.sender); \n        levelToNumberOfUsers[level]--;\n    }\n\n    // @dev This function is used to find the level a user is currently on \n    // @param This function takes in a user's address as the argument\n    function currentLevel(address userAddress) public constant returns (uint) {\n        return userStructs[userAddress].level;\n    }\n\n    function numberOfUsers() public constant returns (uint) {\n        return userAddresses.length;\n    }\n\n    function numberOfUsersPerLevel(uint level) public constant returns (uint) {\n        return levelToNumberOfUsers[level];\n    }\n\n    function getAddressByIndex(uint index) public constant returns (address) {\n        return userAddresses[index];\n    }\n\n    // return an address[] array with all the user addresses a level has\n    function usersInLevel(uint _level) external view returns (address[]) {\n        address[] memory result = new address[](levelToNumberOfUsers[_level]);\n        uint counter = 0;\n        for (uint i = 0; i < userAddresses.length; i++) {\n            if(userStructs[userAddresses[i]].level == _level) {\n                result[counter] = userAddresses[i];\n                counter++;\n            }\n        }\n        return result;\n    }\n\n}\n",
  "sourcePath": "/Users/kseniya/Documents/coding/blockchainCoding/blockchain-tutorial/contracts/UserFactory.sol",
  "compiler": {
    "name": "solc",
    "version": "0.4.19+commit.c4cbbb05.Emscripten.clang"
  },
  "schemaVersion": "2.0.0",
  "updatedAt": "2018-04-06T23:44:45.678Z"
}