{
  "contractName": "UserFactory",
  "abi": [
    {
      "constant": true,
      "inputs": [
        {
          "name": "",
          "type": "address"
        }
      ],
      "name": "userLevel",
      "outputs": [
        {
          "name": "",
          "type": "uint256"
        }
      ],
      "payable": false,
      "stateMutability": "view",
      "type": "function"
    },
    {
      "constant": true,
      "inputs": [
        {
          "name": "",
          "type": "uint256"
        }
      ],
      "name": "users",
      "outputs": [
        {
          "name": "level",
          "type": "uint256"
        }
      ],
      "payable": false,
      "stateMutability": "view",
      "type": "function"
    },
    {
      "constant": false,
      "inputs": [
        {
          "name": "_level",
          "type": "uint256"
        }
      ],
      "name": "assignLevel",
      "outputs": [],
      "payable": false,
      "stateMutability": "nonpayable",
      "type": "function"
    },
    {
      "constant": true,
      "inputs": [
        {
          "name": "userAddress",
          "type": "address"
        }
      ],
      "name": "findLevel",
      "outputs": [
        {
          "name": "",
          "type": "uint256"
        }
      ],
      "payable": false,
      "stateMutability": "view",
      "type": "function"
    }
  ],
  "bytecode": "0x6060604052341561000f57600080fd5b6102f68061001e6000396000f300606060405260043610610062576000357c0100000000000000000000000000000000000000000000000000000000900463ffffffff168063280e31cc14610067578063365b98b2146100b45780634bfefa0b146100eb578063f92e95ae14610138575b600080fd5b341561007257600080fd5b61009e600480803573ffffffffffffffffffffffffffffffffffffffff1690602001909190505061015b565b6040518082815260200191505060405180910390f35b34156100bf57600080fd5b6100d56004808035906020019091905050610173565b6040518082815260200191505060405180910390f35b34156100f657600080fd5b610122600480803573ffffffffffffffffffffffffffffffffffffffff1690602001909190505061019d565b6040518082815260200191505060405180910390f35b341561014357600080fd5b61015960048080359060200190919050506101e6565b005b60016020528060005260406000206000915090505481565b60008181548110151561018257fe5b90600052602060002090016000915090508060000154905081565b6000600160008373ffffffffffffffffffffffffffffffffffffffff1673ffffffffffffffffffffffffffffffffffffffff168152602001908152602001600020549050919050565b600081600160003373ffffffffffffffffffffffffffffffffffffffff1673ffffffffffffffffffffffffffffffffffffffff168152602001908152602001600020819055506001600080548060010182816102429190610277565b916000526020600020900160006020604051908101604052808781525090919091506000820151816000015550500390505050565b81548183558181151161029e5781836000526020600020918201910161029d91906102a3565b5b505050565b6102c791905b808211156102c357600080820160009055506001016102a9565b5090565b905600a165627a7a723058206e45930caf1ff05f755b9e0fe3740fd789dbcc97a58b12072e82401c6cadd3d10029",
  "source": "pragma solidity ^0.4.17;\n\ncontract UserFactory {\n\n//    event NewUser(uint userId, uint level, uint oasisTokenBalance);  \n\n    struct User{\n\tuint level;\n    }\n\n    User[] public users;\n\n    mapping(address => uint) public userLevel; \n\n    function assignLevel(uint _level) public {\n\tuserLevel[msg.sender] = _level;\n        uint id = users.push(User(_level)) -1;\n    }\n\n//    mapping(address => uint) public userLevel;\n\t\n//    function createUser(uint _level, uint _oasisTokenBalance) public {\n//\tuint id = users.push(User(_level, _oasisTokenBalance)) -1;\n//\tuserLevel[msg.sender] = _level;\n\t\n//\tNewUser(id, _level, _oasisTokenBalance);\n//    }\n\n    function findLevel(address userAddress) public constant returns (uint) {\n\treturn userLevel[userAddress];\n    }\n\n}\n",
  "sourcePath": "/home/ubuntu/blockchain-tutorial/contracts/UserFactory.sol",
  "compiler": {
    "name": "solc",
    "version": "0.4.19+commit.c4cbbb05.Emscripten.clang"
  },
  "schemaVersion": "2.0.0",
  "updatedAt": "2018-03-09T20:41:18.811Z"
}