{
  "contractName": "UserFactory",
  "abi": [
    {
      "constant": true,
      "inputs": [
        {
          "name": "",
          "type": "address"
        }
      ],
      "name": "userLevel",
      "outputs": [
        {
          "name": "",
          "type": "uint256"
        }
      ],
      "payable": false,
      "stateMutability": "view",
      "type": "function"
    },
    {
      "constant": true,
      "inputs": [
        {
          "name": "",
          "type": "uint256"
        }
      ],
      "name": "users",
      "outputs": [
        {
          "name": "name",
          "type": "string"
        },
        {
          "name": "level",
          "type": "uint256"
        }
      ],
      "payable": false,
      "stateMutability": "view",
      "type": "function"
    },
    {
      "constant": true,
      "inputs": [],
      "name": "owner",
      "outputs": [
        {
          "name": "",
          "type": "address"
        }
      ],
      "payable": false,
      "stateMutability": "view",
      "type": "function"
    },
    {
      "constant": false,
      "inputs": [
        {
          "name": "newOwner",
          "type": "address"
        }
      ],
      "name": "transferOwnership",
      "outputs": [],
      "payable": false,
      "stateMutability": "nonpayable",
      "type": "function"
    },
    {
      "anonymous": false,
      "inputs": [
        {
          "indexed": true,
          "name": "from",
          "type": "address"
        }
      ],
      "name": "IncrementUserLevel",
      "type": "event"
    },
    {
      "constant": true,
      "inputs": [
        {
          "name": "userAddress",
          "type": "address"
        }
      ],
      "name": "currentLevel",
      "outputs": [
        {
          "name": "",
          "type": "uint256"
        }
      ],
      "payable": false,
      "stateMutability": "view",
      "type": "function"
    }
  ],
  "bytecode": "0x6060604052336000806101000a81548173ffffffffffffffffffffffffffffffffffffffff021916908373ffffffffffffffffffffffffffffffffffffffff160217905550610418806100536000396000f30060606040526004361061006d576000357c0100000000000000000000000000000000000000000000000000000000900463ffffffff168063280e31cc14610072578063365b98b2146100bf578063691a037a1461017f5780638da5cb5b146101cc578063f2fde38b14610221575b600080fd5b341561007d57600080fd5b6100a9600480803573ffffffffffffffffffffffffffffffffffffffff1690602001909190505061025a565b6040518082815260200191505060405180910390f35b34156100ca57600080fd5b6100e06004808035906020019091905050610272565b604051808060200183815260200182810382528481815460018160011615610100020316600290048152602001915080546001816001161561010002031660029004801561016f5780601f106101445761010080835404028352916020019161016f565b820191906000526020600020905b81548152906001019060200180831161015257829003601f168201915b5050935050505060405180910390f35b341561018a57600080fd5b6101b6600480803573ffffffffffffffffffffffffffffffffffffffff169060200190919050506102a4565b6040518082815260200191505060405180910390f35b34156101d757600080fd5b6101df6102ed565b604051808273ffffffffffffffffffffffffffffffffffffffff1673ffffffffffffffffffffffffffffffffffffffff16815260200191505060405180910390f35b341561022c57600080fd5b610258600480803573ffffffffffffffffffffffffffffffffffffffff16906020019091905050610312565b005b60026020528060005260406000206000915090505481565b60018181548110151561028157fe5b906000526020600020906002020160009150905080600001908060010154905082565b6000600260008373ffffffffffffffffffffffffffffffffffffffff1673ffffffffffffffffffffffffffffffffffffffff168152602001908152602001600020549050919050565b6000809054906101000a900473ffffffffffffffffffffffffffffffffffffffff1681565b6000809054906101000a900473ffffffffffffffffffffffffffffffffffffffff1673ffffffffffffffffffffffffffffffffffffffff163373ffffffffffffffffffffffffffffffffffffffff1614151561036d57600080fd5b600073ffffffffffffffffffffffffffffffffffffffff168173ffffffffffffffffffffffffffffffffffffffff16141515156103a957600080fd5b806000806101000a81548173ffffffffffffffffffffffffffffffffffffffff021916908373ffffffffffffffffffffffffffffffffffffffff160217905550505600a165627a7a7230582047da6e880a731a77cc36acb310c9c0301b9cb1a58e6dbf6c99e3fc09d6506ddb0029",
  "source": "pragma solidity ^0.4.17;\n\nimport \"./Ownable.sol\";\n\ncontract UserFactory is Ownable {  \n\n    struct User {\n\n        string name;\n\t    \n        uint level;\n\n    }\n\n    event IncrementUserLevel(address indexed from);\n\n    // array containing the User struct for all Users\n    User[] public users;\n\n    // a mapping from owner address to their userLevel\n    mapping(address => uint) public userLevel; \n\n    // a mapping from levels to the users in them\n    mapping(uint => User[]) levelToUsers;\n\n    // Saving this in case we need it later\n    // uint id = users.push(User(level)) -1;\n\n    function incrementLevel() internal {\n\t\n\t   IncrementUserLevel(msg.sender); \n\n        uint level = currentLevel(msg.sender);      \n\n        if (level == 0) {\n\n            userLevel[msg.sender] += 2;\n\n        } else {\n            \n            userLevel[msg.sender]++;\n\n        }\n\n    }\n\n    function currentLevel(address userAddress) public constant returns (uint) {\n\n\t    return userLevel[userAddress];\n\n    }\n\n}\n",
  "sourcePath": "/Users/Doug/Desktop/blockchain-game/blockchain-tutorial/contracts/UserFactory.sol",
  "compiler": {
    "name": "solc",
    "version": "0.4.19+commit.c4cbbb05.Emscripten.clang"
  },
  "schemaVersion": "2.0.0",
  "updatedAt": "2018-03-30T22:17:55.115Z"
}