{
  "contractName": "UserFactory",
  "abi": [
    {
      "constant": true,
      "inputs": [
        {
          "name": "",
          "type": "uint256"
        }
      ],
      "name": "userAddresses",
      "outputs": [
        {
          "name": "",
          "type": "address"
        }
      ],
      "payable": false,
      "stateMutability": "view",
      "type": "function"
    },
    {
      "constant": true,
      "inputs": [],
      "name": "owner",
      "outputs": [
        {
          "name": "",
          "type": "address"
        }
      ],
      "payable": false,
      "stateMutability": "view",
      "type": "function"
    },
    {
      "constant": false,
      "inputs": [
        {
          "name": "newOwner",
          "type": "address"
        }
      ],
      "name": "transferOwnership",
      "outputs": [],
      "payable": false,
      "stateMutability": "nonpayable",
      "type": "function"
    },
    {
      "constant": false,
      "inputs": [
        {
          "name": "name",
          "type": "string"
        }
      ],
      "name": "createUser",
      "outputs": [],
      "payable": false,
      "stateMutability": "nonpayable",
      "type": "function"
    },
    {
      "constant": true,
      "inputs": [
        {
          "name": "userAddress",
          "type": "address"
        }
      ],
      "name": "currentLevel",
      "outputs": [
        {
          "name": "",
          "type": "uint256"
        }
      ],
      "payable": false,
      "stateMutability": "view",
      "type": "function"
    },
    {
      "constant": true,
      "inputs": [],
      "name": "numberOfUsers",
      "outputs": [
        {
          "name": "",
          "type": "uint256"
        }
      ],
      "payable": false,
      "stateMutability": "view",
      "type": "function"
    },
    {
      "constant": true,
      "inputs": [
        {
          "name": "level",
          "type": "uint256"
        }
      ],
      "name": "numberOfUsersPerLevel",
      "outputs": [
        {
          "name": "",
          "type": "uint256"
        }
      ],
      "payable": false,
      "stateMutability": "view",
      "type": "function"
    },
    {
      "constant": true,
      "inputs": [
        {
          "name": "index",
          "type": "uint256"
        }
      ],
      "name": "getAddressByIndex",
      "outputs": [
        {
          "name": "",
          "type": "address"
        }
      ],
      "payable": false,
      "stateMutability": "view",
      "type": "function"
    },
    {
      "constant": true,
      "inputs": [
        {
          "name": "_level",
          "type": "uint256"
        }
      ],
      "name": "usersInLevel",
      "outputs": [
        {
          "name": "",
          "type": "address[]"
        }
      ],
      "payable": false,
      "stateMutability": "view",
      "type": "function"
    }
  ],
  "bytecode": "0x6080604052336000806101000a81548173ffffffffffffffffffffffffffffffffffffffff021916908373ffffffffffffffffffffffffffffffffffffffff160217905550610948806100536000396000f300608060405260043610610099576000357c0100000000000000000000000000000000000000000000000000000000900463ffffffff1680630c0242341461009e578063502c9bd5146100df578063507ffba51461014c578063691a037a146101b5578063727ff93b1461020c57806375ce46a71461028e5780638da5cb5b146102b9578063ce10cf8814610310578063f2fde38b1461037d575b600080fd5b3480156100aa57600080fd5b506100c9600480360381019080803590602001909291905050506103c0565b6040518082815260200191505060405180910390f35b3480156100eb57600080fd5b5061010a600480360381019080803590602001909291905050506103dd565b604051808273ffffffffffffffffffffffffffffffffffffffff1673ffffffffffffffffffffffffffffffffffffffff16815260200191505060405180910390f35b34801561015857600080fd5b506101b3600480360381019080803590602001908201803590602001908080601f016020809104026020016040519081016040528093929190818152602001838380828437820191505050505050919291929050505061041b565b005b3480156101c157600080fd5b506101f6600480360381019080803573ffffffffffffffffffffffffffffffffffffffff169060200190929190505050610553565b6040518082815260200191505060405180910390f35b34801561021857600080fd5b506102376004803603810190808035906020019092919050505061059f565b6040518080602001828103825283818151815260200191508051906020019060200280838360005b8381101561027a57808201518184015260208101905061025f565b505050509050019250505060405180910390f35b34801561029a57600080fd5b506102a3610728565b6040518082815260200191505060405180910390f35b3480156102c557600080fd5b506102ce610735565b604051808273ffffffffffffffffffffffffffffffffffffffff1673ffffffffffffffffffffffffffffffffffffffff16815260200191505060405180910390f35b34801561031c57600080fd5b5061033b6004803603810190808035906020019092919050505061075a565b604051808273ffffffffffffffffffffffffffffffffffffffff1673ffffffffffffffffffffffffffffffffffffffff16815260200191505060405180910390f35b34801561038957600080fd5b506103be600480360381019080803573ffffffffffffffffffffffffffffffffffffffff16906020019092919050505061079d565b005b600060036000838152602001908152602001600020549050919050565b6002818154811015156103ec57fe5b906000526020600020016000915054906101000a900473ffffffffffffffffffffffffffffffffffffffff1681565b600060023390806001815401808255809150509060018203906000526020600020016000909192909190916101000a81548173ffffffffffffffffffffffffffffffffffffffff021916908373ffffffffffffffffffffffffffffffffffffffff1602179055505081600160003373ffffffffffffffffffffffffffffffffffffffff1673ffffffffffffffffffffffffffffffffffffffff16815260200190815260200160002060000190805190602001906104d9929190610877565b5060018060003373ffffffffffffffffffffffffffffffffffffffff1673ffffffffffffffffffffffffffffffffffffffff1681526020019081526020016000206001018190555061052a33610553565b905060036000828152602001908152602001600020600081548092919060010191905055505050565b6000600160008373ffffffffffffffffffffffffffffffffffffffff1673ffffffffffffffffffffffffffffffffffffffff168152602001908152602001600020600101549050919050565b60608060008060036000868152602001908152602001600020546040519080825280602002602001820160405280156105e75781602001602082028038833980820191505090505b50925060009150600090505b60028054905081101561071d57846001600060028481548110151561061457fe5b9060005260206000200160009054906101000a900473ffffffffffffffffffffffffffffffffffffffff1673ffffffffffffffffffffffffffffffffffffffff1673ffffffffffffffffffffffffffffffffffffffff1681526020019081526020016000206001015414156107105760028181548110151561069257fe5b9060005260206000200160009054906101000a900473ffffffffffffffffffffffffffffffffffffffff1683838151811015156106cb57fe5b9060200190602002019073ffffffffffffffffffffffffffffffffffffffff16908173ffffffffffffffffffffffffffffffffffffffff168152505081806001019250505b80806001019150506105f3565b829350505050919050565b6000600280549050905090565b6000809054906101000a900473ffffffffffffffffffffffffffffffffffffffff1681565b600060028281548110151561076b57fe5b9060005260206000200160009054906101000a900473ffffffffffffffffffffffffffffffffffffffff169050919050565b6000809054906101000a900473ffffffffffffffffffffffffffffffffffffffff1673ffffffffffffffffffffffffffffffffffffffff163373ffffffffffffffffffffffffffffffffffffffff161415156107f857600080fd5b600073ffffffffffffffffffffffffffffffffffffffff168173ffffffffffffffffffffffffffffffffffffffff161415151561083457600080fd5b806000806101000a81548173ffffffffffffffffffffffffffffffffffffffff021916908373ffffffffffffffffffffffffffffffffffffffff16021790555050565b828054600181600116156101000203166002900490600052602060002090601f016020900481019282601f106108b857805160ff19168380011785556108e6565b828001600101855582156108e6579182015b828111156108e55782518255916020019190600101906108ca565b5b5090506108f391906108f7565b5090565b61091991905b808211156109155760008160009055506001016108fd565b5090565b905600a165627a7a723058202242d3a11568862e9386bf401d8381dea427b2c8fd2429a183e24f17c59cc5be0029",
  "source": "pragma solidity ^0.4.17;\n\nimport \"./Ownable.sol\";\nimport \"./safemath.sol\";\n\ncontract UserFactory is Ownable {  \n\n    using SafeMath for uint;\n\n    // @dev Definition of User struct and its grouped list of variables\n    struct User {\n        string name;\n        uint level;\n    }\n\n    // event IncrementUserLevel(address indexed from);\n\n    // map an address to their User struct\n    mapping (address => User) userStructs;\n\n    // a dynamic array of addresses\n    address[] public userAddresses;\n\n    // a mapping from level to number of users\n    mapping(uint => uint) levelToNumberOfUsers;\n\n    function createUser(string name) public {\n\n        // push address into userAddresses array\n        userAddresses.push(msg.sender);\n\n        // set user name\n        userStructs[msg.sender].name = name;\n\n        // set user level to 1\n        userStructs[msg.sender].level = 1;\n\n        uint level = currentLevel(msg.sender); \n\n        // increment number of users in level\n        levelToNumberOfUsers[level]++;\n    }\n\n    function incrementLevel() internal {\n\n        // incremenet users level\n        userStructs[msg.sender].level++;\n\n        uint level = currentLevel(msg.sender); \n\n        // increment number of users in new level\n        levelToNumberOfUsers[level]++;\n\n    }\n\n    function removeFromPriorLevel() internal {\n        uint level = currentLevel(msg.sender); \n\n        // decrement number of users in prior level. This is fired before the incrementLevel function\n        levelToNumberOfUsers[level]--;\n    }\n\n    // @dev This function is used to find the level a user is currently on \n    // @param This function takes in a user's address as the argument\n    function currentLevel(address userAddress) public constant returns (uint) {\n        return userStructs[userAddress].level;\n    }\n\n    function numberOfUsers() public constant returns (uint) {\n        return userAddresses.length;\n    }\n\n    function numberOfUsersPerLevel(uint level) public constant returns (uint) {\n        return levelToNumberOfUsers[level];\n    }\n\n    function getAddressByIndex(uint index) public constant returns (address) {\n        return userAddresses[index];\n    }\n\n    // return an address[] array with all the user addresses a level has\n    function usersInLevel(uint _level) external view returns (address[]) {\n        address[] memory result = new address[](levelToNumberOfUsers[_level]);\n        uint counter = 0;\n        for (uint i = 0; i < userAddresses.length; i++) {\n            if(userStructs[userAddresses[i]].level == _level) {\n                result[counter] = userAddresses[i];\n                counter++;\n            }\n        }\n        return result;\n    }\n\n}\n",
  "sourcePath": "/Users/Doug/Desktop/blockchain-game/blockchain-tutorial/contracts/UserFactory.sol",
  "compiler": {
    "name": "solc",
    "version": "0.4.23+commit.124ca40d.Emscripten.clang"
  },
  "schemaVersion": "2.0.0",
  "updatedAt": "2018-05-22T15:51:03.719Z"
}